:020000040800F2
:1000000000000120BDA900080DAA00080DAA0008E3
:100010000DAA00080DAA00080DAA000800000000A3
:100020000000000000000000000000000DAA000811
:100030000DAA0008000000000DAA00080DAA000883
:100040000DAA00080DAA00080DAA00080DAA0008B4
:100050000DAA00080DAA00080DAA00080DAA0008A4
:100060000DAA00080DAA00080DAA00080DAA000894
:100070000DAA00080DAA00080DAA00080DAA000884
:100080000DAA00080DAA00080DAA00080DAA000874
:100090000DAA00080DAA00080DAA00080DAA000864
:1000A000C96300080DAA00080DAA00080DAA0008DF
:1000B000C56F00080DAA0008656F00080DAA0008AA
:1000C0000DAA00080DAA00080DAA00080DAA000834
:1000D0000DAA0008057000080DAA00080DAA000866
:1000E0000DAA00080DAA00080DAA00080DAA000814
:1000F0000DAA00080DAA00080DAA00080DAA000804
:100100000DAA00080DAA00080DAA00080DAA0008F3
:100110000DAA00080DAA00080DAA00080DAA0008E3
:100120000DAA00080DAA00080DAA00080DAA0008D3
:100130000DAA00080DAA00080DAA00080DAA0008C3
:100140000DAA00080DAA00080DAA00080DAA0008B3
:100150000DAA00080DAA00080DAA00080DAA0008A3
:100160000DAA00080DAA00080DAA00080DAA000893
:100170000DAA00080DAA00080DAA00080DAA000883
:080180000DAA00080DAA0008F9
:1001880010B5054C237833B9044B13B10448AFF3C9
:1001980000800123237010BD14000020000000001F
:1001A800CCAB000808B5034B1BB103490348AFF3B8
:1001B800008008BD0000000018000020CCAB00083B
:1001C80080B485B000AF78600023FB730023BB7355
:1001D8000F237B737B68DB78002B39D0274BDB68D8
:1001E800DB431B0ADBB203F00703FB73FB7BC3F1A2
:1001F8000403BB737A7BFB7B42FA03F37B737B6854
:100208005B781A46BB7B02FA03F3FB737B689A7828
:100218007B7B1340DAB2FB7B1343FB73FB7B1B0135
:10022800FB73174A7B681B781344FA7B83F8002317
:10023800134A7B681B785B09DBB218467B681B781E
:1002480003F01F03012101FA03F342F820300FE005
:100258000B497B681B785B09DBB218467B681B7807
:1002680003F01F0301229A4000F1200341F82320E4
:1002780000BF1437BD465DF8047B704700ED00E011
:1002880000E100E080B483B000AF78607B681B6851
:1002980023F001027B681A607B6800221A607B6881
:1002A80000225A607B6800229A607B680022DA602C
:1002B8007B6800221A617B6821225A617B68464A62
:1002C800934203D1454B3D229A607EE07B68444AC5
:1002D800934204D1414B4FF474629A6075E07B6895
:1002E800404A934204D13D4B4FF474129A606CE03B
:1002F8007B683D4A934204D1384B4FF074629A6050
:1003080063E07B68394A934203D1344B384ADA6058
:100318005BE07B68374A934203D1304B364ADA6058
:1003280053E07B68354A934203D12C4B344ADA6058
:100338004BE07B68334A934204D1284B4FF03D523F
:10034800DA6042E07B68304A934203D12F4B3D226A
:100358009A603AE07B682E4A934204D12B4B4FF4C3
:1003680074629A6031E07B682A4A934204D1274B31
:100378004FF474129A6028E07B68274A934204D1AC
:10038800224B4FF074629A601FE07B68234A9342C5
:1003980003D11E4B164ADA6017E07B68204A934265
:1003A80003D11A4B144ADA600FE07B681D4A934266
:1003B80003D1164B124ADA6007E07B681A4A934267
:1003C80003D1124B4FF03D52DA6000BF0C37BD46E7
:1003D8005DF8047B704700BF106002400060024077
:1003E800286002404060024058600240706002404D
:1003F8003D00002088600240400F0020A0600240BD
:1004080000003D20B86002401064024000640240D1
:10041800286402404064024058640240706402400C
:1004280088640240A0640240B864024080B485B089
:1004380000AF786039600023FB607B681B68FB6055
:10044800FA68254B1340FB603B681A683B68DB6819
:100458001A433B685B691A433B689B691A433B68CC
:10046800DB691A433B681B6A1A433B685B6A1A4399
:100478003B689B6A1A433B685B6B1A433B689B6B00
:100488001343FA681343FB607B68FA681A607B6859
:100498005B69FB60FB6823F00703FB603B68DA6A73
:1004A8003B681B6B1343FA681343FB607B68FA686D
:1004B8005A613B681A697B685A603B685A687B686E
:1004C8009A603B689A687B68DA6000BF1437BD465B
:1004D8005DF8047B704700BF3F801CF080B487B094
:1004E80000AF7860396000237B6100233B61002303
:1004F800FB6000237B6176E001227B6902FA03F34B
:100508003B613B681A683B691340FB60FA683B69CA
:100518009A4265D17B681A687B695B00032101FAFE
:1005280003F3DB431A407B681A607B681A683B68F0
:100538001B7919467B695B0001FA03F31A437B6850
:100548001A603B681B79012B03D03B681B79022B8F
:100558002ED17B689A687B695B00032101FA03F35B
:10056800DB431A407B689A607B689A683B685B79D2
:1005780019467B695B0001FA03F31A437B689A60AA
:100588007B685A687B699BB2194601238B40DB4321
:100598001A407B685A607B685B683A6892791146B2
:1005A8007A6992B201FA02F292B21A437B685A60EF
:1005B8007B68DA687B699BB25B00032101FA03F36D
:1005C800DB431A407B68DA607B68DA683B68DB7972
:1005D80019467B695B0001FA03F31A437B68DA600A
:1005E8007B6901337B617B690F2B85D900BF1C3781
:1005F800BD465DF8047B704780B485B000AF786075
:100608000B467B8013467B700023FB600023BB6096
:100618007A787B8803F007039B0002FA03F3FB60F8
:100628007B88DB089BB218467B88DB089BB21A469E
:100638007B68083253F822207B8803F007039B006D
:100648000F2101FA03F3DB4302EA03017B6800F19F
:10065800080243F822107B88DB089BB21A467B68A5
:10066800083253F82220FB681343BB607B88DB0801
:100678009BB21A467B680832B96843F8221000BF5B
:100688001437BD465DF8047B7047000080B489B01C
:1006980000AF78600023BB6100237B610023FB610E
:1006A80002233B610023FB600223BB60464B9B682F
:1006B80003F00C03BB61BB69042B07D0082B09D0DE
:1006C800002B3DD17B68414A1A603DE07B68404A77
:1006D8001A6039E03C4B5B689B0D03F00103FB603B
:1006E800394B5B6803F03F03BB60FB68002B0CD001
:1006F800374ABB68B2FBF3F3334A52689209C2F334
:10070800080202FB03F3FB610BE0304ABB68B2FB53
:10071800F3F32D4A52689209C2F3080202FB03F36D
:10072800FB61294B5B681B0C03F0030301335B007F
:100738003B61FA693B69B2FBF3F27B681A6003E03C
:100748007B68224A1A6000BF1F4B9B6803F0F003C6
:10075800BB61BB691B09BB611E4ABB6913441B789B
:100768007B617B681A687B69DA407B685A60164B44
:100778009B6803F4E053BB61BB699B0ABB61154AE4
:10078800BB6913441B787B617B685A687B69DA40D4
:100798007B689A600C4B9B6803F46043BB61BB6940
:1007A8005B0BBB610B4ABB6913441B787B617B689D
:1007B8005A687B69DA407B68DA6000BF2437BD4637
:1007C8005DF8047B704700BF003802400024F40045
:1007D80040787D01D4AC000880B483B000AF786065
:1007E8000B46FB70FB78002B06D00A49094B1A6BA5
:1007F8007B6813430B6306E00649064B1A6B7B685C
:10080800DB4313400B6300BF0C37BD465DF8047B28
:10081800704700BF0038024080B483B000AF7860F2
:100828000B46FB70FB78002B06D00A49094B1A6C63
:100838007B6813430B6406E00649064B1A6C7B6819
:10084800DB4313400B6400BF0C37BD465DF8047BE7
:10085800704700BF0038024080B483B000AF7860B2
:100868000B46FB70FB78002B06D00A49094B5A6CE3
:100878007B6813434B6406E00649064B5A6C7B6859
:10088800DB4313404B6400BF0C37BD465DF8047B67
:10089800704700BF0038024080B485B000AF786070
:1008A80039600023FB817B681B88FB81FB8903F48B
:1008B8004153FB813B681A883B685B8813439AB2B3
:1008C8003B689B8813439AB23B68DB8813439AB210
:1008D8003B681B8913439AB23B685B8913439AB2FE
:1008E8003B689B8913439AB23B68DB8913439AB2EE
:1008F800FB891343FB817B68FA891A807B689B8B91
:100908009BB223F400639AB27B689A833B681A8A85
:100918007B681A8200BF1437BD465DF8047B7047B8
:1009280080B483B000AF78600B46FB70FB78002B77
:1009380008D07B681B889BB243F040039AB27B685F
:100948001A8007E07B681B889BB223F040039AB2A9
:100958007B681A8000BF0C37BD465DF8047B704782
:1009680080B483B000AF78600B46FB70FB78002B37
:1009780008D07B681B889BB243F400539AB27B680B
:100988001A8007E07B681B889BB223F400539AB255
:100998007B681A8000BF0C37BD465DF8047B704742
:1009A80080B485B000AF786039600023FB817B6834
:1009B8001B88FB817B68294A934213D07B68284AAD
:1009C80093420FD07B68B3F1804F0BD07B68254AE8
:1009D800934207D07B68244A934203D07B68234A1A
:1009E800934208D1FB8923F07003FB813B685A8846
:1009F800FB891343FB817B681D4A93420CD07B68BB
:100A08001C4A934208D0FB8923F44073FB813B685E
:100A18001A89FB891343FB817B68FA891A803B6832
:100A28005A687B68DA623B681A887B681A857B6833
:100A38000A4A934203D07B68094A934204D13B682F
:100A48009B7A9AB27B681A867B6801229A8200BFD9
:100A58001437BD465DF8047B704700BF00000140B5
:100A6800000401400004004000080040000C004061
:100A7800001000400014004080B483B000AF7860DC
:100A88000B46FB70FB78002B08D07B681B889BB259
:100A980043F001039AB27B681A8007E07B681B88E1
:100AA8009BB223F001039AB27B681A8000BF0C370F
:100AB800BD465DF8047B704780B485B000AF7860B0
:100AC800396000237B810023FB810023BB817B6885
:100AD8001B8C9BB223F001039AB27B681A847B6853
:100AE8001B8CFB817B689B88BB817B681B8B7B8114
:100AF8007B8923F070037B817B8923F003037B814F
:100B08003B681A887B8913437B81FB8923F00203A6
:100B1800FB813B689A89FB891343FB813B685A88B0
:100B2800FB891343FB817B681E4A934203D07B6891
:100B38001D4A934223D1FB8923F00803FB813B68BC
:100B4800DA89FB891343FB81FB8923F00403FB81CA
:100B58003B689A88FB891343FB81BB8923F4807324
:100B6800BB81BB8923F40073BB813B681A8ABB89AC
:100B78001343BB813B685A8ABB891343BB817B689B
:100B8800BA899A807B687A891A833B689A687B68F5
:100B98005A637B68FA891A8400BF1437BD465DF82A
:100BA800047B7047000001400004014080B485B018
:100BB80000AF7860396000237B810023FB8100232C
:100BC800BB817B681B8C9BB223F010039AB27B68B5
:100BD8001A847B681B8CFB817B689B88BB817B6844
:100BE8001B8B7B817B8923F4E0437B817B8923F406
:100BF80040737B813B681B881B029AB27B89134335
:100C08007B81FB8923F02003FB813B689B891B01C7
:100C18009AB2FB891343FB813B685B881B019AB23C
:100C2800FB891343FB817B68224A934203D07B688C
:100C3800214A93422BD1FB8923F08003FB813B6837
:100C4800DB891B019AB2FB891343FB81FB8923F0E3
:100C58004003FB813B689B881B019AB2FB891343C5
:100C6800FB81BB8923F48063BB81BB8923F40063C8
:100C7800BB813B681B8A9B009AB2BB891343BB812B
:100C88003B685B8A9B009AB2BB891343BB817B6834
:100C9800BA899A807B687A891A833B689A687B68E4
:100CA8009A637B68FA891A8400BF1437BD465DF8D9
:100CB800047B7047000001400004014080B485B007
:100CC80000AF7860396000237B810023FB8100231B
:100CD800BB817B681B8C9BB223F480739AB27B68C0
:100CE8001A847B681B8CFB817B689B88BB817B6833
:100CF8009B8B7B817B8923F070037B817B8923F02D
:100D080003037B813B681A887B8913437B81FB89BA
:100D180023F40073FB813B689B891B029AB2FB8911
:100D28001343FB813B685B881B029AB2FB89134320
:100D3800FB817B68224A934203D07B68214A934215
:100D48002BD1FB8923F40063FB813B68DB891B0201
:100D58009AB2FB891343FB81FB8923F48063FB81EF
:100D68003B689B881B029AB2FB891343FB81BB89B2
:100D780023F48053BB81BB8923F40053BB813B68B8
:100D88001B8A1B019AB2BB891343BB813B685B8AF0
:100D98001B019AB2BB891343BB817B68BA899A80CD
:100DA8007B687A899A833B689A687B68DA637B6890
:100DB800FA891A8400BF1437BD465DF8047B704772
:100DC800000001400004014080B485B000AF7860A5
:100DD80039600023BB8100237B810023FB817B6872
:100DE8001B8C9BB223F480539AB27B681A847B686D
:100DF8001B8C7B817B689B88FB817B689B8BBB8181
:100E0800BB8923F4E043BB81BB8923F44073BB81D6
:100E18003B681B881B029AB2BB891343BB817B8941
:100E280023F400537B813B689B891B039AB27B891F
:100E380013437B813B685B881B039AB27B8913430E
:100E48007B817B68124A934203D07B68114A9342A4
:100E58000AD1FB8923F48043FB813B681B8A9B01F1
:100E68009AB2FB891343FB817B68FA899A807B6875
:100E7800BA899A833B689A687B681A647B687A891E
:100E88001A8400BF1437BD465DF8047B704700BF65
:100E9800000001400004014080B483B000AF7860D6
:100EA8000B46FB70FB78002B0CD07B68B3F8443002
:100EB8009BB26FEA43436FEA53439AB27B68A3F845
:100EC800442009E07B68B3F844309BB2C3F30E03B7
:100ED8009AB27B68A3F8442000BF0C37BD465DF882
:100EE800047B704780B485B000AF78600B467B8088
:100EF8000023FB817B681B89FB81FB8923F070033E
:100F0800FB81FA897B881343FB817B68FA891A8104
:100F180000BF1437BD465DF8047B704780B483B0CA
:100F280000AF78600B467B807B689B889BB223F080
:100F380070039AB27B689A807B689B889AB27B8898
:100F480013439AB27B689A8000BF0C37BD465DF8A0
:100F5800047B704780B483B000AF78600B467B8019
:100F68007B681B899BB223F007039AB27B681A81BE
:100F78007B681B899AB27B8813439AB27B681A8173
:100F880000BF0C37BD465DF8047B704780B483B062
:100F980000AF78600B467B807B681B899BB223F08F
:100FA80080039AB27B681A817B681B899AB27B8816
:100FB80013439AB27B681A8100BF0C37BD465DF8AF
:100FC800047B704780B58AB000AF78603960002331
:100FD8007B6200233B620023FB610023BB617B68CB
:100FE8001B8A9BB27B627B6A23F440537B623B681B
:100FF800DB881A467B6A13437B627B6A9AB27B68FA
:101008001A827B689B899BB27B627B6A23F4B0530C
:1010180023F00C037B623B689A883B681B89134367
:101028009AB23B685B8913439BB21A467B6A1343A7
:101038007B627B6A9AB27B689A817B689B8A9BB247
:101048007B627B6A23F440737B623B689B891A4608
:101058007B6A13437B627B6A9AB27B689A8207F148
:1010680008031846FFF712FB7B68304A934203D007
:101078007B682F4A934202D17B693B6201E03B695E
:101088003B627B689B899BB21BB2002B0CDA3A6AE5
:1010980013469B0013449A001A443B681B685B0084
:1010A800B2FBF3F3FB610BE03A6A13469B0013446F
:1010B8009A001A443B681B689B00B2FBF3F3FB6180
:1010C800FB691C4AA2FB03235B091B017B627B6A49
:1010D8001B09642202FB03F3FA69D31ABB617B681C
:1010E8009B899BB21BB2002B0CDABB69DB00323345
:1010F800104AA2FB03235B0903F007037A6A134330
:101108007B620BE0BB691B0132330A4AA2FB032353
:101118005B0903F00F037A6A13437B627B6A9AB216
:101128007B681A8100BF2837BD4680BD001001408A
:10113800001401401F85EB5180B485B000AF002337
:10114800FB8108E0FB89FA891249895C124AD1546B
:10115800FB890133FB81FB89B3F5D85FF2D30F4BD1
:10116800BB600023FB800AE0FB880D4AD25CBB68A9
:101178001A70BB680133BB60FB880133FB80FB88B6
:10118800B3F5D05FF0D300BF1437BD465DF8047BDC
:10119800704700BFDCA90020DCC400209C000020B0
:1011A800E0E3002080B485B000AF0023FB8108E0B5
:1011B800FB89FA891249895C124AD154FB890133A7
:1011C800FB81FB89B3F5D85FF2D30F4BBB600023DB
:1011D800FB800AE0FB88BA6811780C4AD154BB68D6
:1011E8000133BB60FB880133FB80FB88B3F5D05F1C
:1011F800F0D300BF1437BD465DF8047B704700BFCD
:10120800DCC40020DCA900209C000020E0E30020D2
:101218002DE97041284B984285B038DD4724274B8B
:1012280090FBF3F000234FF00A0E4FF0200C4FF024
:101238002E0804AA90FBFEF51A440EFB150646F08C
:101248003006284602F80C6C6CB3012B02D18DF8DD
:1012580006800223002D03F1010222DC4D1E1846F0
:101268000DF1040E10F80E6005F8016F10F1FF3053
:10127800F8D234B120208854CA1862209470D070F3
:101288001A1D0023D0B28B5405B0BDE870810C4BF9
:101298009842C3BF42F210734D2490FBF3F0002430
:1012A800C0E71346C5E79A07D4D5013304AA1A4400
:1012B80002F80CCCCEE700BFFFC99A3B8096980095
:1012C8003F420F0010B5274C0020214603F05EF97D
:1012D800237803F0FD03E92B37D0B4F8FE214AF652
:1012E80055239A4233D104F5DF7304F5FF711A7957
:1012F8000B3A012A02D910338B42F8D198681A4B5D
:101308001849186003F042F9237803F0FD03E92B2C
:101318001FD1B4F80B30B3F5007F1CD1637B082BC9
:101328001BD1E36A022B1AD1E389E269616A0F488B
:101338001A44237C01FB0323103B0360238D01FB2C
:101348000322094B00201A6010BD00BFE1E701200D
:1013580010BD022010BD032010BD042010BD0520C3
:1013680010BD00BFA0A400208C0000209000002029
:1013780090B597B000AF78607B68DA00A74B1B6820
:1013880013447B65012387F84F30002387F84E30DC
:101398000023A7F84C30002387F84B30A04B3B6262
:1013A8003B6A03F5CF531F33FB613B6A7B64FB69E0
:1013B8000D3B3B643B6C00221A7000225A7000F00F
:1013C80079BD9849786D03F0E1F8964B3B650023A9
:1013D80087F83F3000F03EBD3B6D1B78002B04D1F1
:1013E800002387F84F3000F03ABD3B6D1B78E52BA2
:1013F80007D13B6D20333B65002387F84B3000F065
:1014080024BD3B6DDB7A0F2B40F007833B6D1B78C7
:1014180003F03F03FB74FB7C032B40F0058197F836
:101428004B30013387F84B307B6C03F126023B6D60
:10143800997F3B6DDB7F9B08DBB218468000184420
:10144800400003441B01DBB20B44DBB213707B6C1E
:1014580003F125023B6D197F3B6D5B7F9B08DBB277
:10146800184680001844400003441B01DBB20B44BB
:10147800DBB213707B6C03F124023B6D197E3B6D6C
:101488005B7E9B08DBB2184680001844400003448A
:101498001B01DBB20B44DBB213707B6C03F123023C
:1014A8003B6D997D3B6DDB7D9B08DBB21846800068
:1014B8001844400003441B01DBB20B44DBB2137039
:1014C8007B6C03F122023B6D197D3B6D5B7D9B08B4
:1014D800DBB2184680001844400003441B01DBB20D
:1014E8000B44DBB213707B6C03F121023B6D997CDA
:1014F8003B6DDB7C9B08DBB218468000184440003B
:1015080003441B01DBB20B44DBB213707B6C03F1A9
:1015180020023B6D197C3B6D5B7C9B08DBB2184657
:1015280080001844400003441B01DBB20B44DBB2CB
:1015380013707B6C03F11F023B6D997B3B6DDB7B6A
:101548009B08DBB2184680001844400003441B0186
:10155800DBB20B44DBB213707B6C03F11E023B6DF4
:10156800597A3B6D9B7A9B08DBB218468000184479
:10157800400003441B01DBB20B44DBB213707B6CED
:1015880003F11D023B6DD9793B6D1B7A9B08DBB2D9
:10159800184680001844400003441B01DBB20B448A
:1015A800DBB213707B6C03F11C023B6D59793B6D08
:1015B8009B799B08DBB2184680001844400003441E
:1015C8001B01DBB20B44DBB213707B6C03F11B0213
:1015D8003B6DD9783B6D1B799B08DBB218468000C0
:1015E8001844400003441B01DBB20B44DBB2137008
:1015F8007B6C03F11A023B6D59783B6D9B789B0815
:10160800DBB2184680001844400003441B01DBB2DB
:101618000B44DBB2137000F015BC00BF9000002033
:101628009C000020A0A40020FB7C022B40F0FD8041
:1016380097F84B30013387F84B307B6C03F1190274
:101648003B6D997F3B6DDB7F9B08DBB218468000C2
:101658001844400003441B01DBB20B44DBB2137097
:101668007B6C03F118023B6D197F3B6D5B7F9B0818
:10167800DBB2184680001844400003441B01DBB26B
:101688000B44DBB213707B6C03F117023B6D197EC0
:101698003B6D5B7E9B08DBB2184680001844400017
:1016A80003441B01DBB20B44DBB213707B6C03F108
:1016B80016023B6D997D3B6DDB7D9B08DBB21846BE
:1016C80080001844400003441B01DBB20B44DBB22A
:1016D80013707B6C03F115023B6D197D3B6D5B7DCF
:1016E8009B08DBB2184680001844400003441B01E5
:1016F800DBB20B44DBB213707B6C03F114023B6D5D
:10170800997C3B6DDB7C9B08DBB218468000184453
:10171800400003441B01DBB20B44DBB213707B6C4B
:1017280003F113023B6D197C3B6D5B7C9B08DBB2BC
:10173800184680001844400003441B01DBB20B44E8
:10174800DBB213707B6C03F112023B6D997B3B6D2E
:10175800DB7B9B08DBB2184680001844400003443A
:101768001B01DBB20B44DBB213707B6C03F111027B
:101778003B6D597A3B6D9B7A9B08DBB2184680001B
:101788001844400003441B01DBB20B44DBB2137066
:101798007B6C03F110023B6DD9793B6D1B7A9B087A
:1017A800DBB2184680001844400003441B01DBB23A
:1017B8000B44DBB213707B6C03F10F023B6D59795C
:1017C8003B6D9B799B08DBB21846800018444000AB
:1017D80003441B01DBB20B44DBB213707B6C03F1D7
:1017E8000E023B6DD9783B6D1B799B08DBB218461E
:1017F80080001844400003441B01DBB20B44DBB2F9
:1018080013707B6C03F10D023B6D59783B6D9B782F
:101818009B08DBB2184680001844400003441B01B3
:10182800DBB20B44DBB213700CE3FB7C012B40F002
:10183800098397F84B30013387F84B307B6C03F101
:101848000C023B6D997F3B6DDB7F9B08DBB2184632
:1018580080001844400003441B01DBB20B44DBB298
:1018680013707B6C03F10B023B6D197F3B6D5B7F43
:101878009B08DBB2184680001844400003441B0153
:10188800DBB20B44DBB213707B6C03F10A023B6DD5
:10189800197E3B6D5B7E9B08DBB2184680001844BE
:1018A800400003441B01DBB20B44DBB213707B6CBA
:1018B80003F109023B6D997D3B6DDB7D9B08DBB233
:1018C800184680001844400003441B01DBB20B4457
:1018D800DBB213707B6C03F108023B6D197D3B6D25
:1018E8005B7D9B08DBB21846800018444000034427
:1018F8001B01DBB20B44DBB213707B6CDA1D3B6D52
:10190800997C3B6DDB7C9B08DBB218468000184451
:10191800400003441B01DBB20B44DBB213707B6C49
:101928009A1D3B6D197C3B6D5B7C9B08DBB21846AE
:1019380080001844400003441B01DBB20B44DBB2B7
:1019480013707B6C5A1D3B6D997B3B6DDB7B9B0851
:10195800DBB2184680001844400003441B01DBB288
:101968000B44DBB213707B6C1A1D3B6D597A3B6DCF
:101978009B7A9B08DBB21846800018444000034459
:101988001B01DBB20B44DBB213707B6CDA1C3B6DC2
:10199800D9793B6D1B7A9B08DBB218468000184446
:1019A800400003441B01DBB20B44DBB213707B6CB9
:1019B8009A1C3B6D59793B6D9B799B08DBB21846A5
:1019C80080001844400003441B01DBB20B44DBB227
:1019D80013707B6C5A1C3B6DD9783B6D1B799B0847
:1019E800DBB2184680001844400003441B01DBB2F8
:1019F8000B44DBB213703B6D5A783B6D9B789B08A8
:101A0800DBB219468900194449000B441B01DBB2BB
:101A18001344DAB27B6C1A7014E23B6DBB6197F821
:101A28004B30002B56D097F84B30013B87F83E30AF
:101A380097F83E30002B2FD097F83E301A465200C8
:101A48001A4492001344DBB2053B87F83E3023E08A
:101A580097F83E307A6C13441B782E2B06D097F8F3
:101A68003E307A6C13441B78002B10D197F83E3027
:101A78007A6C134400221A7097F83E309AB2B7F87D
:101A88004C3013449BB20133A7F84C3008E097F868
:101A98003E30013387F83E3097F83E30262BD7D9B1
:101AA80097F83E30272B65D17B6C263300221A70BD
:101AB8007B6C25332E221A707B6C24332E221A70ED
:101AC8007B6C23332E221A70B7F84C302733A7F8D3
:101AD8004C304FE0BB69DB7A03F00803002B03D0DE
:101AE8003B6D20333B65B0E1BB69DB7A03F0100343
:101AF800002B0FD0BB691B782E2B0BD1BB695B78F1
:101B0800202B07D197F84E30002B03D13B6D2033A3
:101B18003B659AE17B6C083300221A707B6C0733B3
:101B2800BA69D2791A707B6C0633BA6992791A70DD
:101B38007B6C0533BA6952791A707B6C0433BA69C5
:101B480012791A707B6C0333BA69D2781A707B6C7D
:101B58000233BA6992781A707B6C0133BA69527889
:101B68001A70BB691A787B6C1A70B7F84C30093355
:101B7800A7F84C303B6C1A785B781B021343FB8246
:101B8800FB690D3BBB63FB8A3A6A13447B630823FA
:101B980087F83330002387F83230002387F8313054
:101BA800B3E0BB69DB7A03F01003002B48D0BB6BB2
:101BB8001B889BB21BB2002B3ADABB6B1B889BB20B
:101BC800C3F30C033A6A1344FB627B6B1A78FB6A13
:101BD8001B789A420ED297F84E2097F83130D31AD4
:101BE80087F8323097F84E3087F83130BB6B0D33B9
:101BF800BB6382E07B6B1A78FB6A1B789A4277D1C9
:101C08007B6B01337B63FB6A0133FB627B6B1B7865
:101C1800002B72D07B6B1B78002B6ED097F833307B
:101C2800013B87F8333097F83330002BCDD164E08F
:101C380097F84E2097F83130D31A87F832306BE096
:101C4800BB6B1B889BB21BB2002B03DABB6B0D3B33
:101C5800BB6355E0BB6B1B889BB2C3F30C033A6AAA
:101C68001344BB62FB8A3A6A13447B637B6B1A7822
:101C7800BB6A1B789A420ED297F84E2097F83130FB
:101C8800D31A87F8323097F84E3087F83130BB6B6B
:101C98000D33BB6331E07B6B1A78BB6A1B789A42C1
:101CA80028D17B6B01337B63BB6A0133BB627B6BDF
:101CB8001B78002B12D1BB6A1B78002B1CD097F81D
:101CC8004E2097F83130D31A87F8323097F84E30D3
:101CD80087F83130BB6B0D33BB630EE097F83330B8
:101CE800013B87F8333097F83330002BBED104E03E
:101CF80000BF02E000BF00E000BFBB6B0D3BBB6351
:101D080097F83130013387F8313097F8312097F858
:101D18004E309A42FFF445AF97F83230002B2CD062
:101D2800002387F8273020E097F8272013465B0028
:101D380013449B0013443A6CD11897F827305A1C67
:101D480013465B0013449B0013443A6C1A440B4639
:101D58001468506891681C6058609960127B1A7307
:101D680097F82730013387F8273097F8272097F816
:101D780032309A42D8D3BB6B3B643B6CFA8A1A80E8
:101D8800BB69DB7A03F01003002B09D03B6C1B887E
:101D98009BB26FEA43436FEA53439AB23B6C1A8093
:101DA800BB691A7A3B6C9A70BB695A7A3B6CDA70D9
:101DB800BB699A7A3B6C1A71BB699B8A9BB21B02FE
:101DC800BA69528B92B213441A463B6CC3F8052089
:101DD800BB69DA693B6CC3F80920002387F84B30EC
:101DE80097F84E30013387F84E30B7F84C303A6ADE
:101DF80013447B6497F84E305A1C13465B00134417
:101E08009B0013445B42FA6913443B643B6CB7F88C
:101E18004C201A8097F84E309BB21A4652001A444A
:101E2800920013449AB2B7F84C30D31A9BB203F518
:101E3800CF531F33BB82BB8A6C2B03D8002387F890
:101E48004F300CE03B6D20333B6597F83F30013352
:101E580087F83F3097F83F300F2B7FF6BDAA97F8E9
:101E68004F30002B2CD07B6D01337B65194B1B68E1
:101E78007A6DD31A03F00703002B1BD17B68DB09AB
:101E8800FB60154B1A68FB6813441449184602F0A6
:101E98007DFB7B689B00114A13441B687B607B6851
:101EA8006FF0704293420DD07B68DA00094B1B68D3
:101EB80013447B6597F84F30002B7FF482AA02E029
:101EC80000BF00E000BF97F84E3018465C37BD46AB
:101ED80090BD00BF900000208C000020A0A400202E
:101EE80080B584B000AF78600023FB736E4B1B781D
:101EF800002B00F0D0806C4B00221A707B681B7995
:101F080003F00803002B00F0BC807B685B7801338A
:101F1800DAB27B685A707B685B78142B08D17B68CF
:101F28005B889BB2DBB201221721184602F00EFC37
:101F38007B685B78282B40F0A4807B685B889BB229
:101F4800DBB200221721184602F000FC7B68002251
:101F58005A7096E0554B1B78C3F12003BB73BB7BCB
:101F6800534AD35C592B49D0592B04DC112B0FD081
:101F7800122B24D061E0E02B02D0F02B04D05CE0DF
:101F88004C4B01221A706CE04B4B01221A7068E02E
:101F9800494B1B78002B0AD07B681B7923F004037C
:101FA800DAB27B681A71444B00221A7059E07B68D8
:101FB8001B7943F00403DAB27B681A7151E03E4B97
:101FC8001B78002B0AD07B681B7923F00103DAB257
:101FD8007B681A71384B00221A7042E07B681B79C3
:101FE80003F00403002B01D01223FB737B681B79D9
:101FF80043F00103DAB27B681A7132E02E4B1B788A
:10200800002B0AD07B681B7923F00103DAB27B68C6
:102018001A71294B00221A7023E07B681B7903F0A0
:102028000403002B01D01223FB737B681B7943F058
:102038000103DAB27B681A7113E01F4B1B78002B7F
:1020480003D01D4B00221A7003E0BB7B184AD35CF7
:10205800FB73184B1B78002B02D0164B00221A700A
:1020680000BF124B1B78013BDAB2104B1A700F4BB2
:102078001B78002B02D10D4B20221A70FB7B002B02
:1020880008D10A4B1B781A460C4B5B689A427FF4BE
:1020980061AF00E000BFFB7B002B3FF427AFFB7B69
:1020A80018461037BD4680BD3B00002000000020C8
:1020B800B0A90020310000203200002088640240CE
:1020C80090B591B000AF0446084611461A4623461B
:1020D800FB710346BB710B467B7113463B718F4BFB
:1020E800BB62BB6A03F5CF531F337B620CE1FB79FC
:1020F8005A1C13465B0013449B0013445B427A6AE4
:1021080013443B62FA793B79B2FBF3F3DBB2FB830E
:10211800FB799AB23B799BB2F98B11FB03F39BB223
:10212800D31AFB83FB8B0133FB83092387F83F30EA
:10213800FB8BDB009BB21E221946082002F0F6FB3F
:102148003B6A1B889BB21BB2002B4BDA744B754A57
:102158001A60FA797B799A421BD1FB8B5B0103F5F4
:10216800C0530133704A7021D1540023BB630CE083
:10217800FB8B5B0103F5C0530233BA6B13446A4A05
:102188007121D154BB6B0133BB63BB6B1C2BEFDDDF
:102198001AE0FB8B5B0103F5C0530133624A382117
:1021A800D15400237B630CE0FB8B5B0103F5C05328
:1021B80002337A6B13445C4A3921D1547B6B013367
:1021C8007B637B6B1C2BEFDDFB8BDB009BB2574AE1
:1021D8001946092002F0D2FB97F83F300A3387F8F6
:1021E8003F303CE04E4B4F4A1A60FA797B799A426D
:1021F80013D100233B630CE0FB8B5B0103F5C05359
:1022080001333A6B1344484A7021D1543B6B013374
:102218003B633B6B1D2BEFDD12E00023FB620CE000
:10222800FB8B5B0103F5C0530133FA6A13443E4A42
:102238003821D154FB6A0133FB62FB6A1D2BEFDDA9
:102248003B6A9B78542B09D13B6ADB78412B05D13B
:102258003B6A1B79502B01D100BF00E000BF97F803
:102268003F3098B2FB8BDB009BB2013B99B23B6AD3
:102278001B889BB2C3F30C03BA6A13441A4602F0D4
:1022880011FC0023FB763B6A9B783B763B6ADB7844
:102298007B763B6A1B79BB76FB8BDB009BB2013BF1
:1022A8009BB207F118021946E42002F0FBFB3B6AD7
:1022B8001B889BB21BB2002B23DB3B6AD3F8093087
:1022C8001A4607F1080319461046FEF7A1FF034610
:1022D8007B777A7F07F108031146184602F088FBDE
:1022E80003467B777B7F9BB2C3F1E00398B2FB8BFD
:1022F800DB009BB2013B9BB207F10802194602F0D2
:10230800D1FBFB790133FB71FA79BB799A42FFF46F
:10231800EEAE00BF4437BD4690BD00BF9C00002014
:10232800A8A600200CC70008DCC4002074C8000858
:102338002DE9704FB54BB64E1B78B64D92B007934A
:10234800FEF730FFB14A3F23137002F05BFCB24A3C
:102358000021402002F012FBB04A0021482002F080
:102368000DFBAF4A0021502002F008FBAD4A0021C6
:10237800582002F003FBAC4A0021602002F0FEFA6C
:10238800AA4A0021682002F0F9FAA94A002170201F
:1023980002F0F4FA7820A74A002102F0EFFA0023AD
:1023A8009B468DF840308DF84130ADF842308DF8BD
:1023B80044309A46069305930220FEF7D9FF83B26C
:1023C8009D4A0893013B9BB20C93A2FB03231B0974
:1023D80099490A90421E03EB430081FB0241C3EB7B
:1023E800C00311449BB2D2170D93C2EB211309937A
:1023F800DFF85082082421461E22082002F096FAAF
:1024080040461E22382108F1200808F0D3FB083482
:10241800B045A4B2EFD11024214608342A46F8204A
:10242800A4B202F0ABFAB82CF6D10AF11703089A55
:102438000A999BB29942C8BF1A460B93099B04920A
:10244800002B39D07C4BA3FB0A39099BC9F30F1920
:1024580001334FF0140898FBF3F818FB09F91FFA39
:1024680089F303935FFA88F810244FF0000908E015
:1024780002F084FA09F101090834B9F1150FA4B280
:102488001AD041F65F0303EB49116C4B39205854BD
:10249800039B1FFA89F2934221462A464FF0F8001F
:1024A800E6D8B8F1000FE3D008F1FF38644A5FFAC4
:1024B80088F802F063FADDE7049B5FFA8AF85FFAAE
:1024C80083F9013B1C4603934046172349465FFAAC
:1024D8008BF2FFF7F5FDA3B20E93DBB20F9310A8B2
:1024E800FFF7FEFC5A381C28F9D801A353F820F04E
:1024F80051260008E7240008E7240008E72400081C
:10250800E7240008E7240008E7240008E724000877
:10251800E7240008E7240008E7240008E724000867
:10252800E7240008E7240008E7240008E724000857
:10253800E7240008F3250008E7240008E72400083A
:10254800E7240008E7240008E7240008E724000837
:10255800CB250008E7240008A725000881250008E6
:102568006D250008FEF7E8FD284B9DF81C201A7021
:10257800002012B0BDE8708FBBF1000FAFD00BF197
:10258800FF331FFA83FBDA4500F2A2815FFA8BF270
:10259800911CC9B210461723FFF792FD9FE70A9ACC
:1025A8000BF101039A429AD0039B9B4500F0B68138
:1025B80017230F9ADDF838B049464046FFF780FDEB
:1025C8008DE70BF10104089BA4B29C4287D0049BC1
:1025D800A34200F0B081E2B2511C501EC9B2C0B291
:1025E8001723A346FFF76CFD79E7DA4540F0AF8083
:1025F800BBF1000F3FF473AFAAF117039BB2ABF125
:1026080017021FFA82FB04939A46F1E6380000206D
:10261800DDDF002044C800088CC7000894C7000804
:102628009CC70008A4C70008ACC70008B4C70008C6
:10263800BCC70008C4C70008C94216B2DCC40020E1
:102648004CC80008FDDC00200BF1010303EB43023A
:10265800D44C03EB8203E41A228893B2120400F1EB
:102668007181A378542B7AD05A2B7FF438AFE37852
:10267800382B7FF434AF2379302B7FF430AFCA4B3B
:10268800D4F805201B68DFF84883DFF8349303EBA0
:10269800C20318464146C9F8003001F077FF98F8A0
:1026A800062098F807301A4240F0288198F822301E
:1026B800012B40F22381BD4BBD4C4FF046304FF00B
:1026C80047314FF007324FF0460E9962D9621963CD
:1026D800596383F83810596259669966D96619673B
:1026E800596783F878109A6403F18401DA641A65EB
:1026F8005A6583F858205A64186058609860D86002
:10270800186158611883186218641866C3F8800045
:1027180083F839E083F859E083F879E0C3F8842036
:10272800009403F1A00483F899E0C3F8A0004A607C
:102738000A750A61CA608A606060A060E060206112
:102748006061208306231A2209210320B5E017239C
:10275800424649464046FFF7B3FCD346BFE6E37816
:10276800412B7FF4BCAE2379502B7FF4B8AE914B4C
:102778001B78FF2B40F0B2808F4C4FF0460C4FF087
:1027880047334FF007324FF0463EC4F82530C4F8BF
:102798004520C4F82930C4F82D30C4F83130A4F8E5
:1027A8003530C4F84920C4F84D20C4F85120A4F8A5
:1027B8005520C4F800E0C4F804E0C4F808E0C4F800
:1027C8000CE0C4F810E0C4F814E084F820C084F8E1
:1027D80021C084F822C084F823C084F824C084F877
:1027E80037C084F840C084F841C084F843C084F8F6
:1027F80044C084F857C084F860C084F861C084F885
:1028080062C084F863C084F864C04FF04708C4F815
:102818006530C4F86930C4F86D30C4F87130A4F874
:102828007530C4F88520C4F8A130C4F8C120C4F8B4
:102838008920C4F88D20C4F89120A4F89520C4F804
:10284800A530C4F8A930C4F8AD30C4F8B130A4F844
:10285800B530C4F8C520C4F8C920C4F8CD20C4F8E0
:10286800D120A4F8D5200823544A84F877C084F8E6
:1028780080C084F881C084F882C084F883C084F85A
:1028880084C084F897C084F8A0C084F8B7C084F8DE
:10289800C0C084F8D7C01946C4F8E0E0042000920C
:1028A800182284F84280C4F8E4E0C4F8E8E0C4F8E8
:1028B800ECE0C4F8F0E0C4F8F4E001F0A1FF41F264
:1028C8008830CDF810A003F095FDDDF810A08FE555
:1028D800AAF117039BB204939A4689E5384B394904
:1028E800D4F80900D4F805201A600860FEF724FC23
:1028F800354B9DF81C201A7001203AE6314AD4F86D
:102908000530D4F809101160C9F80030FEF714FC3E
:102918002D4B9DF81C201A7002202AE6049B1633C2
:102928001FFA83FB089B9B4508D30D9BDDF830B04D
:1029380004939A465CE59B469A4659E50B9B04939B
:102948009A4655E5D4F8050028B90222A071E0712D
:10295800207262711046BAF1000F13D1C3F30C0351
:102968001A4A995C2E29134412D0CDF818A0CDF834
:1029780014A052465346CDF818B0CDF814A093468B
:102988009A461AE50023059306931A46059BF2E733
:102998005B782E2BE9D1DDF818B0DDF814A05A4683
:1029A8005346E8E79B1A002090000020FFDD002036
:1029B80090AE00085F000020E0DD002070B3000842
:1029C8007000002098000020380000209C000020A3
:1029D800A0A400202DE97847174DDFF860A08846AD
:1029E8004FEAD01900F07F042E46DAF8000031468D
:1029F800484401F0CBFD05EB84031A460433116803
:102A080031B10134802CF8D109F101090024ECE737
:102A1800B8F1010F03D004EBC910BDE87887DAF8E4
:102A2800000005496FF070434844136001F098FCBA
:102A380004EBC910BDE87887A0A400208C00002012
:102A480003682DE9704F0133174E0360036832683D
:102A58009B1A5B0726D1044601210220FFF7BAFF23
:102A680035682368DFF844B0DFF84480ED431D443F
:102A78008246DBF800004FEA9529414648446D0834
:102A880001F084FD05F4FE75DBF8000045F808A0A8
:102A98004844414601F07AFD55F80820336803EBB5
:102AA800C2032360BDE8708F900000208C000020D6
:102AB800A0A400200378012B03D1FF2303704370E7
:102AC8007047BF2B85BF03F554730370002304239D
:102AD8004370704738B5094D04462946206801F00F
:102AE80055FD00235A01D8B2525D32B10133102B83
:102AF800F8D12046FFF7A4FFEFE738BDA0A40020D7
:102B0800A0F16103192B02D82038C0B27047DF2822
:102B1800FAD870472DE9704FCA4C86B001210220BF
:102B280026682579FFF756FFC74B01901B68A4F864
:102B38007E0006AA03EBC60342F8043D86467346A8
:102B4800164602921B0C502284F86E20A4F87830A6
:102B58006FF035026FF075034FF0000854204121E3
:102B680084F8722084F87A2084F87330492284F833
:102B78007B30522384F86C0084F86D10304684F85A
:102B88006F8084F8708084F8718084F8808084F87D
:102B9800818084F8828084F8838084F8742084F8A3
:102BA800762084F87C2084F8753084F8773084F8AF
:102BB8007D30FFF78FFF082D06464ED8002D40F0D8
:102BC8008881202384F864302023022D84F865301E
:102BD80040F28F81E079FFF793FF032D84F86600B8
:102BE80040F28A81207AFFF78BFF042D84F8670072
:102BF80040F28581607AFFF783FF052D84F868002D
:102C080040F28081A07AFFF77BFF062D84F86900E7
:102C180040F27B81E07AFFF773FF082D84F86A00A1
:102C280040F07681207BFFF76BFF84F86B00874BC1
:102C380087491C68D3F804E0059875016A186C5038
:102C4800DC689D68D4601C69C2F804E09560146172
:102C5800D3F814E09D69DC692AE14246294604F16B
:102C6800050808E0FFF74CFFA3180132D2B2052A85
:102C780083F864000CD818F8013B0139202B18465A
:102C8800C9B2EFD1C2F105039942EBDD052AF2D9A9
:102C980094F8642094F865E094F8660094F8671056
:102CA800D30143EA520303EB0E02C2F3460343EA9D
:102CB800C2131A18C2F3460343EAC2135A1894F807
:102CC80068E094F869106348C2F3460343EAC21304
:102CD80003EB0E02C2F3460343EAC2135A18C2F3C7
:102CE800460343EAC21303F17E02C2F346030535E5
:102CF80043EAC2133133EAB2A0FB02E0C3F3460150
:102D080094F86CE041EAC3117144830894F86DE0CB
:102D1800C1F3460040EAC1100133704403F1FF38A3
:102D2800C0F3460E08EB48014EEAC01001EBC101A2
:102D380094F86EE001EBC1010A4400EB0E0184F83F
:102D48003F107E2184F86A10312184F86B106019D5
:102D58002E21D2B261550C2A3F49C0F8011009D87A
:102D6800C2F10C02D2B2013205300121039307F0FF
:102D780021FF039BDFF8D890384D4FF0000A0F224F
:102D880084F83D2084F83EA084F84CA084F84DA037
:102D9800402208EB480108EB81011A43053184F809
:102DA8003220DFF8BCB0214400220FE0BEF10A0F48
:102DB80040D891F800E000F802EDFFF77BFE013201
:102DC8000D2A01F101010BF1020B11D0042A58461A
:102DD8005FFA82FEEAD891F800E000F805EDFFF707
:102DE80069FE01320D2A01F101010BF1020BEDD14F
:102DF800710109EB01032A6849F801200136EA68E4
:102E08006868A968DA60F6B22A69586099606869E2
:102E1800A9691A61102EEA6958619961DA6121D0AD
:102E280018F0FF0384F832A04FF0000229D003F114
:102E3800FF38AEE708788BF800005846FFF73AFEEF
:102E4800BDE700BF9C00002090000020000100208A
:102E5800A0A400204FECC44E74617000CE00002086
:102E6800D40000202C49059801F07AFA0298FFF75F
:102E780031FE18F0FF03064684F832A04FF0000236
:102E8800D5D1264B24491868D3F804E09D6874010D
:102E980009EB040249F80400DC681869C2F804E088
:102EA8009560D4601061D3F814E09D69DC690598D9
:102EB800C2F814E09561D46101F052FA059B184AF2
:102EC800019823F0704343EA0676166006B0BDE821
:102ED800708F6079FFF714FE012D84F864003FF4C9
:102EE80073AEA079FFF70CFE022D84F865003FF65B
:102EF80071AE202384F86630202384F867302023BD
:102F080084F86830202384F86930202384F86A30F4
:102F1800202384F86B308AE6A0A40020000100205A
:102F28006000002080B59EB000AF02237B670023BD
:102F3800BB64002387F87030002387F86F300023C4
:102F480087F86E30002387F86D30002387F86C30DF
:102F5800002387F86B30BF4B1B7887F84730BD4B91
:102F68003F221A70002387F82C3001F04BFEBA4A32
:102F78000021402001F002FDB84A0021482001F05C
:102F8800FDFCB74A0021502001F0F8FCB54A0021A9
:102F9800582001F0F3FCB44A0021602001F0EEFC57
:102FA800B24A0021682001F0E9FCB14A00217020F2
:102FB80001F0E4FCAF4A0021782001F0DFFCAE4BC1
:102FC800AE4A1A6001237B6608E07B6E03F5D7538F
:102FD800AB4A3B21D1547B6E01337B667B6E062B5B
:102FE800F3DDA84AB721092001F05CFD1C233B66EC
:102FF80008E03B6E03F5D753A14A3B21D1543B6E01
:1030080001333B663B6E1E2BF3DD9F4AB721E4205C
:1030180001F048FD0723FB6508E0FB6D03F5D75376
:10302800974A7821D154FB6D0133FB65FB6D1B2B4F
:10303800F3DD00233B7100237B713823FB800823D9
:103048003B72786FFEF794F9034687F8733097F868
:103058007330013B8D4A82FB03129210DB17D31A9F
:1030680087F84630012387F85B3022E097F85B3019
:103078009BB2DB009BB21E221946082001F056FCC9
:1030880000237B650DE097F85B305B0103F5C053C7
:1030980001337A6D13447A4A3821D1547B6D013358
:1030A8007B657B6D1D2BEEDD97F85B30013387F870
:1030B8005B3097F85B30162BD8D9002387F853304C
:1030C80010E097F853309BB2DB009BB210339BB2F1
:1030D8006F4A1946F82001F051FC97F85330013334
:1030E80087F8533097F85330142BEAD997F86E3095
:1030F800163387F8713097F871305A1C97F8733087
:103108009A4203DD97F8733087F8713097F84630A4
:10311800002B58D097F846300133142292FBF3F372
:1031280087F8523097F86E305A4AA2FB03231B09DE
:10313800DBB2A7F8443097F852309BB2B7F8442076
:1031480012FB03F3A7F84430002387F8513036E028
:1031580097F851305B0103F5C2531F33484A3921B0
:10316800D15497F851309BB2B7F844209A4215D8F9
:1031780097F85230002B11D097F85230013B87F85E
:10318800523097F851309BB2DB009BB210339BB2A0
:10319800414A1946F82001F0F1FB0BE097F851304D
:1031A8009BB2DB009BB210339BB2394A1946F82018
:1031B80001F0E4FB97F85130013387F8513097F864
:1031C8005130142BC4D997F86D2097F8711097F8DF
:1031D8006E001623FEF774FF3B1D1846FEF780FEAF
:1031E800034687F8723097F872306B2B00F0158120
:1031F8006B2B08DC5A2B16D0662B00F09881122B0B
:1032080000F0048227E2742B00F0CC80742B03DCDE
:10321800722B00F062811EE2752B00F03C81762B48
:1032280000F0BA8017E23B7A03F00403002B54D075
:1032380097F86B30002B00D1CEE7184B3B633B6B04
:103248007A6F1A60154A97F86B301371002387F864
:10325800733036E0380000204CC7000854C7000817
:103268005CC7000864C700086CC7000874C700087A
:103278007CC7000884C70008A8A600200CC700085F
:10328800DCC4002054AE000860AE0008E9A28B2E12
:1032980044C80008A38B2EBA4CC800089C00002024
:1032A80097F87330053397F8732007F178010A44CB
:1032B80012F86C1CD34AD15497F87330013387F84D
:1032C800733097F8732097F86B309A42E8D3CE4A58
:1032D80097F847301370012361E2CA4B3B643B6C9B
:1032E80003F5CF531F33FB6397F86D305A1C134611
:1032F8005B0013449B0013445B42FA6B1344BB63AB
:10330800BB6B1B889BB21BB2002BBFF665AFBB6BB8
:10331800D3F80530002B0AD1BB6B002242F0020221
:103328005A7100229A710022DA7100221A7297F8F3
:103338006E30002B1DD1BB6B1B889BB2C3F30C03F3
:103348003A6C13447B637B6B1B782E2B11D17B6B00
:1033580001331B782E2B0CD197F8703087F86E301C
:1033680097F86F3087F86D30BB6BD3F805307B6703
:1033780067E697F86E3087F8703097F86D3087F801
:103388006F30002387F86E30002387F86D30BB6BF1
:10339800D3F805307B6754E69B4A97F8473013709B
:1033A8000023FCE197F86C2097F86B309A423FF4C1
:1033B80013AF97F86C30002B07D0FB88DBB20022E4
:1033C8001721184601F0C2F90BE01422B821382061
:1033D80001F0ACFA07F10C031A46B721382001F0C6
:1033E80061FB97F86C30013387F86C3097F86C20E4
:1033F80007F10C031146184601F0FAFA03469BB28E
:1034080038339BB2FB80FB88DBB2012217211846B8
:1034180001F09CF904237B71DEE697F86C30002BF1
:103428003FF4DAAEFB88DBB200221721184601F020
:103438008DF997F86C30013B87F86C3097F86C2061
:1034480007F10C031146184601F0D2FA03469BB265
:1034580038339BB2FB8097F86C30002B11D1F88879
:10346800FB88DB089BB2C3F11B039BB21A46B82149
:1034780001F05CFA07F10C031A46B721392001F074
:1034880011FBFB88DBB201221721184601F05EF917
:1034980004237B71A0E697F86D30002B3FF49CAEB7
:1034A80097F86D30013B87F86D3097F86D2097F8E5
:1034B8006E309A4205D297F86E30163B87F86E3018
:1034C800D0E597F86D300233D9B297F86D2097F8A8
:1034D8006D001623FEF7F4FD7EE697F86D30013394
:1034E80087F86D3097F86D2097F873309A4205D1B8
:1034F80097F86D30013B87F86D306DE697F86D20D1
:1035080097F871309A4204D197F86D3087F86E3089
:10351800A8E597F86D30013BD8B297F86D300133C4
:10352800D9B297F86D201623FEF7CAFD54E697F82E
:103538006C30002B3FF450AE97F86C30013B87F8A5
:103548006C3097F86C3087F8503013E097F85030AB
:1035580097F85020013207F178010A4412F86C2CD0
:1035680007F178010B4403F86C2C97F850300133BD
:1035780087F8503097F8502097F86B309A42E5D387
:1035880097F86B30013B87F86B3097F86B3007F191
:1035980078021344002203F86C2C97F86C2007F18A
:1035A8000C031146184601F023FA03469BB2383340
:1035B8009BB2FB80F888FB88DB089BB2C3F11B0336
:1035C8009BB21A46B82101F0B1F997F86C30002B7C
:1035D80007D007F10C031A46B721382001F062FA28
:1035E80006E007F10C031A46B721392001F05AFA10
:1035F800FB88DBB201221721184601F0A7F8042343
:103608007B71E9E59C000020380000203B7A03F03C
:103618001003002B0FD00322B821E42001F086F913
:10362800614AB721E42001F03DFA3B7A23F0100308
:10363800DBB23B72D0E50322B821E42001F076F931
:103648005A4AB721E42001F02DFA3B7A43F01003DF
:10365800DBB23B72C0E53B7A03F01003002B12D0BB
:103668003B7A03F00103002B06D097F87230504ADA
:10367800D35C87F8723018E097F872304D4AD35C03
:1036880087F8723011E03B7A03F00103002B06D073
:1036980097F87230484AD35C87F8723005E097F89B
:1036A8007230464AD35C87F8723097F87230002B34
:1036B80000D191E597F86B30182B00D18CE597F87D
:1036C8006B3087F84F3013E097F84F3097F84F205A
:1036D800013A07F178010A4412F86C2C07F17801D5
:1036E8000B4403F86C2C97F84F30013B87F84F30A8
:1036F80097F84F2097F86C309A42E5D897F86C30D5
:1037080007F17802134497F8722003F86C2C97F8A5
:103718006C2007F10C031146184601F069F90346BD
:103728009BB238339BB2FB80F888FB88DB089BB2DE
:10373800C3F11B039BB21A46B82101F0F7F897F8BA
:103748006C30013387F86C3097F86B30013387F8A9
:103758006B3097F86B3007F178021344002203F8B6
:103768006C2C07F10C031A46B721382001F09AF99E
:1037780097F86C2007F10C031146184601F038F948
:1037880003469BB238339BB2FB80FB88DBB2012235
:103798001721184600F0DAFF04237B711CE5184650
:1037A8007837BD4680BD00BF60AE000864AE000833
:1037B8009CAD0008F8AD000840AD0008E4AC000876
:1037C80008B5FDF7EFFCFFF7ADFB01280DD000B100
:1037D80008BDFDF7B1FC0D4B4FF480721A804FF411
:1037E800FA70BDE8084002F005BEFFF793F9084BF0
:1037F800084A1B6803EBC0001060FDF79DFC0649F2
:10380800064A02230B60138008BD00BFA2A6002051
:1038180090000020700000209800002096000020F2
:1038280080B582B000AF01214FF48040FCF7F4FF6F
:1038380003237B710023BB7102233B710123FB71BE
:103848004FF460433B603B4619461548FCF746FE7B
:1038580005220D211248FCF7CFFE05220E21104843
:10386800FCF7CAFE05220F210D48FCF7C5FE03230D
:103878007B710023BB7101233B710123FB714FF462
:1038880000533B603B4619460648FCF727FE054BAC
:103898004FF400521A8300BF0837BD4680BD00BFF1
:1038A800000402400008024080B485B000AF03461F
:1038B800FB714FF48053FB8106E0FB895A1EFA81A5
:1038C800002B01D100231EE0124B1B899BB203F091
:1038D8000203002BF1D0104AFB7913704FF4805388
:1038E800FB8106E0FB895A1EFA81002B01D10023D7
:1038F80009E0084B1B899BB203F00103002BF1D0B0
:10390800054B1B78DBB218461437BD465DF8047BBF
:10391800704700BF003800400C38004080B483B0C6
:1039280000AF4FF48053FB8006E0FB885A1EFA80F4
:10393800002B01D100231EE0124B1B899BB203F020
:103948000203002BF1D0104BFF221A704FF4805362
:10395800FB8006E0FB885A1EFA80002B01D1002369
:1039680009E0084B1B899BB203F00103002BF1D03F
:10397800054B1B78DBB218460C37BD465DF8047B57
:10398800704700BF003800400C38004080B584B054
:1039980000AF03463960FB711346BB71FF23FB730D
:1039A8003B46BB604FF48053BB81FF20FFF77CFF91
:1039B800FB7943F04003DBB21846FFF775FFBB689D
:1039C80003331B781846FFF76FFFBB6802331B7879
:1039D8001846FFF769FFBB6801331B781846FFF7E5
:1039E80063FFBB681B781846FFF75EFFBB79184674
:1039F800FFF75AFF0AE0FFF791FF0346FB73BB8905
:103A08005A1EBA81002B01D1002303E0FB7BFF2B58
:103A1800F1D0FB7B18461037BD4680BD90B59FB0EE
:103A280000AF0023A7F874300023A7F872300023F2
:103A3800BB630023A7F87030B54B1B7823F0020353
:103A4800DAB2B34B1A70B34B4FF441721A80B14AD1
:103A5800B04B1B889BB243F038039BB21380AD4A2E
:103A6800AC4B1B889BB243F040039BB21380AA4B1C
:103A78004FF400525A83002387F8773006E0FFF7A7
:103A88004DFF97F87730013387F8773097F877301C
:103A98004F2BF4D9952200210020FFF777FF03462A
:103AA80087F8763012E0FFF739FF034687F876305B
:103AB800B7F874300133A7F87430B7F87430B3F539
:103AC8007A4F03D90123A7F87030F5E197F87630DB
:103AD800012BE8D1904B4FF400521A838E4B4FF4D0
:103AE80000525A8387224FF4D5710820FFF74EFF02
:103AF800034687F876300023A7F8743014E0FFF700
:103B08000DFF034687F87630B7F874300133A7F80D
:103B18007430B7F87430802B06D9B7F8703043F09A
:103B28000203A7F87030C7E197F87630012BE6D189
:103B3800794B4FF400521A830023A7F87430764B60
:103B48004FF400525A830023A7F874300023A7F8D3
:103B58007230FFF7E3FE034687F87630B7F8723025
:103B68000133A7F87230B7F87430802B06D9B7F84C
:103B7800703043F40063A7F870309DE197F8763011
:103B8800FF2BE6D1FF2200213720FFF7FFFE034677
:103B980087F8763015E0FFF7C1FE034687F87630E0
:103BA800B7F872300133A7F87230B7F87230B3F54E
:103BB8007A5F06D9B7F8703043F48063A7F870309D
:103BC8007AE197F87630FF2BE5D00023A7F872301A
:103BD800FFF7A4FE034687F87630B7F87230013352
:103BE800A7F87230B7F87430802B06D9B7F8703060
:103BF80043F48053A7F870305EE197F87630FF2BD6
:103C0800E6D1FF224FF080412920FFF7BFFE03468F
:103C180087F876300023A7F8723015E0FFF77EFEAC
:103C2800034687F87630B7F872300133A7F8723058
:103C3800B7F87230B3F57A5F06D9B7F8703043F445
:103C48000073A7F8703037E197F87630FF2BE5D08E
:103C5800314B4FF400521A83B7F874300133A7F888
:103C68007430B7F874304FF6DC72934206D9B7F85F
:103C7800703043F00403A7F870301DE197F87630F0
:103C8800002B7FF45CAF244B4FF400521A83224B75
:103C98004FF400525A83002200213B20FFF776FEA2
:103CA800034687F876301C4B4FF400521A83FF20E6
:103CB800FFF7FAFD97F87630002B06D0B7F870308A
:103CC80043F00803A7F87030F6E0134B4FF40052A6
:103CD8005A83FF224FF400711020FFF757FE034666
:103CE80087F876300C4B4FF400521A83FF20FFF709
:103CF800DBFD97F87630002B06D0B7F8703043F02C
:103D08001003A7F87030D7E0002387F877300BE06E
:103D18005F000020003800400008024000BF97F80C
:103D28007730013387F8773097F877303F2BF5D91C
:103D3800BF4ABF4B1B889BB223F040039BB2138042
:103D4800BB4ABB4B1B889BB223F038039BB2138042
:103D5800B74AB74B1B889BB243F008039BB213804A
:103D6800B34AB34B1B889BB243F040039BB213800A
:103D7800B04B4FF400521A83002387F8773007E0DE
:103D8800FF20FFF791FD97F87730013387F87730F8
:103D980097F87730272BF3D9A64B4FF400525A8364
:103DA800002200210920FFF7F1FD034687F876304D
:103DB80097F87630002B06D0B7F8703043F0200320
:103DC800A7F8703078E00023A7F8743000BFFFF739
:103DD800A5FD0346FE2BFAD1002387F877300FE0C4
:103DE80097F87740FFF79AFD03461A4607F17803DC
:103DF800234403F8742C97F87730013387F8773029
:103E080097F877300F2BEBD9FFF788FDFFF786FD82
:103E1800884B4FF400521A83FF20FFF745FD00231B
:103E2800A7F87430834B4FF400525A8300220021C4
:103E38000A20FFF7ABFD034687F8763097F876300F
:103E4800002B19D0B7F8703043F08003A7F8703012
:103E580032E0FFF763FD034687F87630B7F8743031
:103E68005A1CA7F87420802B06D9B7F8703043F491
:103E78008073A7F870301FE097F87630FE2BE8D1F2
:103E8800002387F877300FE097F87740FFF746FD73
:103E980003461A4607F17803234403F8642C97F87D
:103EA8007730013387F8773097F877300F2BEBD9D5
:103EB800FFF734FDFFF732FD5E4B4FF400521A83D3
:103EC800FF20FFF7F1FCB7F87030202B00F051818C
:103ED800202B12DC022B78D0022B04DC002B2AD0FA
:103EE800012B5AD0A5E1082B00F01381102B00F00C
:103EF8002881042B00F099809BE1B3F5007F7CD0EA
:103F0800B3F5007F0ADC802B00F06381B3F5807F76
:103F180000F07781402B00F044818AE1B3F5006F0F
:103F280000F0C780B3F5805F00F0DB80B3F5806FE9
:103F380000F0A7807DE17B7BBB633B7B1B02BA6BF8
:103F48001343BB63FB7A1B04BA6B1343BB63BB6BA2
:103F58000133BB63BB6B9B02BB63BB6BA3F5B22393
:103F6800A3F25F43344A1360BB6B07F12402114686
:103F7800184602F057FAFB791A4607F12403194646
:103F8800104602F04FFA00233B772C4B1B7843F086
:103F98000203DAB2294B1A704BE10023FB6608E0F2
:103FA800FB6E03F5C253264A0221D154FB6E01333E
:103FB800FB66FB6E1F2BF3DD224B234A1A60234A54
:103FC8001021002000F06EFD33E10023BB6608E0FD
:103FD800BB6E03F5C2531A4A0221D154BB6E01339A
:103FE800BB66BB6E1F2BF3DD164B174A1A60184AC7
:103FF8001021002000F056FD1BE100237B6608E03D
:104008007B6E03F5C2530E4A0221D1547B6E0133F5
:104018007B667B6E1F2BF3DD0A4B0B4A1A600D4A39
:104028001021002000F03EFD03E100233B661CE068
:104038000038004000080240840000205F00002093
:10404800DCC40020A8A600200CC7000870BA00082D
:104058008CBA0008A8BA00083B6E03F5C253774A29
:104068000221D1543B6E01333B663B6E1F2BF3DDBF
:10407800734B744A1A60744A1021002000F012FD34
:10408800D7E00023FB6508E0FB6D03F5C2536B4ADC
:104098000221D154FB6D0133FB65FB6D1F2BF3DD52
:1040A800674B684A1A60694A1021002000F0FAFC40
:1040B800BFE00023BB6508E0BB6D03F5C2535F4A50
:1040C8000221D154BB6D0133BB65BB6D1F2BF3DDE2
:1040D8005B4B5C4A1A605E4A1021002000F0E2FC4B
:1040E800A7E000237B6508E07B6D03F5C253534AC4
:1040F8000221D1547B6D01337B657B6D1F2BF3DD72
:104108004F4B504A1A60534A1021002000F0CAFC55
:104118008FE000233B6508E03B6D03F5C253474A37
:104128000221D1543B6D01333B653B6D1F2BF3DD01
:10413800434B444A1A60484A1021002000F0B2FC60
:1041480077E00023FB6408E0FB6C03F5C2533B4AAD
:104158000221D154FB6C0133FB64FB6C1F2BF3DD94
:10416800374B384A1A603D4A1021002000F09AFC6B
:104178005FE00023BB6408E0BB6C03F5C2532F4A21
:104188000221D154BB6C0133BB64BB6C1F2BF3DD24
:104198002B4B2C4A1A60324A1021002000F082FC76
:1041A80047E000237B6408E07B6C03F5C253234A95
:1041B8000221D1547B6C01337B647B6C1F2BF3DDB4
:1041C8001F4B204A1A60274A1021002000F06AFC81
:1041D8002FE000233B6408E03B6C03F5C253174A09
:1041E8000221D1543B6C01333B643B6C1F2BF3DD44
:1041F800134B144A1A601C4A1021002000F052FC8C
:1042080017E00023FB6308E0FB6B03F5C2530B4A7E
:104218000221D154FB6B0133FB63FB6B1F2BF3DDD6
:10422800074B084A1A60114A1021002000F03AFC96
:1042380000BF00BF7C37BD4690BD00BFDCC4002076
:10424800A8A600200CC70008D0BA0008F8BA0008D1
:1042580020BB000848BB000870BB000890BB0008E2
:10426800B4BB0008D4BB0008F4BB000814BC0008A9
:1042780080B584B000AF03463960FB711346BB714B
:104288002E4B2F4A1A60FB79012B14D10023FB60B7
:1042980008E0FB6803F5C0532A4A0221D154FB68A1
:1042A8000133FB60FB681F2BF3DD274A0021002048
:1042B80000F0F8FB13E00023BB6008E0BB6803F5DF
:1042C800C053204A0221D154BB680133BB60BB688C
:1042D8001F2BF3DD1D4A0021002000F0E3FBBB7912
:1042E800013B032B22D801A252F823F00543000812
:1042F800114300081D43000829430008144A0021FF
:10430800602000F0CFFB11E0124A0021602000F08D
:10431800C9FB0BE0104A0021602000F0C3FB05E058
:104328000E4A0021602000F0BDFB00BF4FF4FA5098
:1043380002F060F800BF1037BD4680BDA8A6002077
:104348000CC70008DCC4002034BC000844BC0008CA
:1043580054BC000864BC000870BC000880BC00089D
:10436800854AF8B54FF4005E844E854B854FA2F818
:104378001AE00D460446FF211A899207FCD53970C8
:104388001A89D007FCD53A78013ED2B200F0E28013
:10439800FF2AF1D121461820FFF7F8FA002840F04B
:1043A800DF80774A13899907FCD5764B744AFE213A
:1043B80019701389DB07FCD5724A714B117805F126
:1043C800100005F5047519898F07FCD510F8101C25
:1043D80011701989CE07FCD5117819898907FCD580
:1043E80010F80F1C11701989CF07FCD5117819899D
:1043F8008E07FCD510F80E1C11701989C907FCD559
:10440800117819898F07FCD510F80D1C11701989BE
:10441800CE07FCD5117819898907FCD510F80C1C32
:1044280011701989CF07FCD5117819898E07FCD529
:1044380010F80B1C11701989C907FCD51178198956
:104448008F07FCD510F80A1C11701989CE07FCD506
:10445800117819898907FCD510F8091C1170198978
:10446800CF07FCD5117819898E07FCD510F8081CE0
:1044780011701989C907FCD5117819898F07FCD5DE
:1044880010F8071C11701989CE07FCD51178198905
:104498008907FCD510F8061C11701989CF07FCD5BF
:1044A800117819898E07FCD510F8051C1170198927
:1044B800C907FCD5117819898F07FCD510F8041C99
:1044C80011701989CE07FCD5117819898907FCD58F
:1044D80010F8031C11701989CF07FCD511781989B8
:1044E8008E07FCD510F8021C11701989C907FCD574
:1044F800117819898F07FCD510F8011C11701989DA
:10450800CE07FCD5117810308542C9B27FF45BAF75
:10451800FF2910D11C481A4B1A4D0E461A899107CB
:10452800FCD52E701A89D207FCD529780138C9B272
:104538001CD0FF29F2D001F01F01052904D0214623
:1045480004220120FFF794FE0B4B4FF400521A830C
:104558000020F8BD012221461046FFF789FEF3E747
:10456800214602220120FFF783FEEDE721460322C0
:104578000120FFF77DFEE7E70008024001D00700B1
:10458800003800400C3800409E860200F0B583B029
:104598006A4A01906A4E6B4B6B4F4FF400500D46C0
:1045A8005083FF211A899007FCD539701A89D207E0
:1045B800FCD53C78013EE4B200F0B380FF2CF1D189
:1045C8002046FFF771F95120FFF76EF99DF80700B3
:1045D800FFF76AF99DF80600FFF766F99DF80500F0
:1045E800FFF762F99DF80400FFF75EF92046FFF730
:1045F8005BF9544B54484FF6FB711A899607FCD562
:1046080004701A89D207FCD502780139D2B200F0B9
:104618008E80FE2AF1D1FF244B4A4A4B05F1100047
:10462800264605F5047516701989CF07FCD511784B
:1046380000F8101C14701989C907FCD5117800F806
:104648000F1C14701989CF07FCD5117800F80E1CBF
:1046580014701989C907FCD5117800F80D1C14705D
:104668001989CF07FCD5117800F80C1C147019892A
:10467800C907FCD5117800F80B1C14701989CF07ED
:10468800FCD5117800F80A1C14701989C907FCD5E3
:10469800117800F8091C14701989CF07FCD5117816
:1046A80000F8081C14701989C907FCD5117800F89E
:1046B800071C14701989CF07FCD5117800F8061C5F
:1046C80014701989C907FCD5117800F8051C1470F5
:1046D8001989CF07FCD5117800F8041C14701989C2
:1046E800C907FCD5117800F8031C14701989CF0785
:1046F800FCD5117800F8021C14701989C907FCD57B
:10470800117800F8011C103085428CD1FFF706F9AA
:10471800FFF704F9094B4FF4005200201A8303B045
:10472800F0BD012201990220FFF7A2FDF2E7022263
:1047380010460199FFF79CFDECE700BF0008024016
:1047480002D00700003800400C38004080B485B023
:1047580000AF0346FB710B46BB7113467B71FB79B7
:10476800DB08BB72FB7903F00703802242FA03F3EC
:104778007B72BB79DB00FB73FB7B1F4A32F813307B
:10478800BB810023FB722DE07B79002B0DD0BA8909
:10479800BB7A1344B989BA7A0A441849895C7A7A87
:1047A8000A43D1B2154AD15411E0BA89BB7A1344ED
:1047B800B989BA7A0A4411498A5C51B297F9092031
:1047C800D24352B20A4052B2D1B20C4AD154FB7B06
:1047D8000133FB73FB7B084A32F81330BB81FB7A49
:1047E8000133FB72FB7A072BCED900BF1437BD46C5
:1047F8005DF8047B704700BFE40A0108DCC40020B0
:1048080090B486B000AF0446084611461A462346BF
:10481800FB710346BB710B467B7113463B71BB7939
:104828009BB2DB00FB82FB8A1A4A32F81330BB8248
:10483800FB79FB72FA7A7B791344BB720023FB7411
:104848001EE0FB7AFB600CE0BA8AFB6813443A6A04
:104858001178114AD1543B6A01333B62FB6801333A
:10486800FB60BA7AFB689A42EEDCFB8A0133FB8272
:10487800FB8A084A32F81330BB82FB7C0133FB7495
:10488800FA7C3B79DB009A42DBDB00BF1837BD4678
:1048980090BC7047E40A0108DCC4002080B487B0EB
:1048A80000AF3B600346FB710B46BB7113467B713F
:1048B800BB799BB2DB00FB82FB8A1A4A32F81330C1
:1048C800BB82FB79FB72FA7A7B791344BB720023B3
:1048D800FB741EE0FB7AFB600CE0BA8AFB681344A9
:1048E8003A681178104AD1543B6801333B60FB6841
:1048F8000133FB60BA7AFB689A42EEDCFB8A01332B
:10490800FB82FB8A074A32F81330BB82FB7C0133F7
:10491800FB74FB7C072BDDD900BF1C37BD465DF857
:10492800047B7047E40A0108DCC400202DE97847BD
:10493800C0F3C70808EB0205DFF83890EDB245452B
:1049480039F8113014DD01F10806DFF82CA00C4607
:10495800A5EB0805B6B2434401340AEB0300A4B240
:104968002A46002106F026F9B44239F81430F2D16B
:10497800BDE87887E40A0108DCC4002070B41A4B4B
:104988001A4D33F81140167805EBD0004D1CADB226
:10499800065533F81550567846558C1CA4B2CD1CD4
:1049A80033F8144096780655ADB20C1D33F81550FF
:1049B800D6784655A4B24D1D33F8144016790655DD
:1049C800ADB28C1D33F8155056794655A4B207314F
:1049D80033F814409579055589B2D27933F81130F6
:1049E800C25470BC704700BFE40A0108DCC4002050
:1049F800002938D0FF2970B537D0294A0023D2F8CA
:104A080000E001381D4610E002F18044BF2AA4F1FD
:104A1800620414D8202A39D19EF801200133013AC2
:104A2800DBB215449942ADB214D910F8012FA2F1A6
:104A3800210602F180445D2EA4F12104E4D8DEF8B9
:104A48000820013332F82420DBB205EBD225994245
:104A5800ADB2EAD8481E81B29EF8020010FB01F000
:104A68000544A8B270BD084670470578002185B195
:104A78000131C9B2435C002BFAD10029BDD1084BE2
:104A88000D46D3F800E04FF6FF71E5E7013989B22A
:104A9800E2E7034B4FF6FF71D3F800E0DCE700BF15
:104AA800A8A600202DE9704F88B013460692524AF6
:104AB8001B781268514D0492009007914FF0800ABC
:104AC800002B00F08180202B00F08380A3F12100CF
:104AD800C0B25D2800F28980049B01B29A6832F85E
:104AE800213002EB8102C3F3440BD90A9478059173
:104AF800C3F38412DB07079B9B44049B58BF6442A3
:104B0800DE78DB6824B206FB004013FA80FC0098CC
:104B18003B4C00F007031FFA8BFB0193C308C9B293
:104B280034F81B800293002A3DD0059B002B3AD015
:104B3800531E009A5BFA83F301320139013352FAAA
:104B480081F19BB203931FFA81F98022DDF808E016
:104B58000199009B0EEB08004AFA01F12E564CB25F
:104B680026EA040129549CF800100A4218BF34436D
:104B780003F101039BB218BF2C54520804BF0CF177
:104B8800010C8022994503F007014FEAD30EE1D1C9
:104B98000BF1010B1FFA8BFB194B33F81B80039B9E
:104BA8009B45D3D10098049B06999A784B7810447A
:104BB8000246059810FA82F292B200920A46013231
:104BC8000692002B7FF47FAF00BF009808B0BDE8C5
:104BD800708F00BF049B00995878069A0144537857
:104BE80089B20132009106926AE7BF2B7FF668AF5F
:104BF800623BD8B270E700BFA8A60020DCC4002042
:104C0800E40A01082DE9704F944E954ADFF8C482F2
:104C18004FF03934002182B0084634607460FFF7E1
:104C2800ADFE904A00210820FFF7A8FE8D4A00211A
:104C38001020FFF7A3FE8B4A00211820FFF79EFEE5
:104C4800884A00212020FFF799FE874A0021282062
:104C5800FFF794FE854A00213020FFF78FFE844A33
:104C680000213820FFF78AFE4FF03A33F3603361B2
:104C78007361B3607F4A00218020FFF77FFE7E4A80
:104C880000218820FFF77AFE7C4A00219020FFF758
:104C980075FE7B4A00219820FFF770FE794A0021B3
:104CA800A020FFF76BFE784A0021A820FFF766FED8
:104CB800764A0021B020FFF761FE754A0021B8202E
:104CC800FFF75CFEB461F461724A0021C020FFF76F
:104CD80055FE714A0021C820FFF750FE6F4A002197
:104CE800D020FFF74BFE5F4A0021D820FFF746FE91
:104CF8005C4A0021E020FFF741FE5A4A0021E820E3
:104D0800FFF73CFE574A0021F020FFF737FE3546F3
:104D1800634A0021F820FFF731FE3923614A05F87C
:104D2800203F08210020FFF729FE3E3608244FF0D7
:104D3800380905F8019F204642460821FFF71EFE64
:104D48000834B542A4B2F4D141F63F035648574A55
:104D5800574DDFF880914FF0390B00F803B0082168
:104D6800F820FFF70BFE4FF0100ACDF804B0AB4661
:104D78009DF804304F4A0BF81E3D51460020FFF7BE
:104D8800FDFDAAF10806B6B208244FF038080BF862
:104D9800018F20464A463146FFF7F0FD08345D454D
:104DA800A4B2F4D19DF804306B705146424AF82001
:104DB800FFF7E4FD414B20350AF1080AAB421FFA20
:104DC8008AFAD4D1A3F11E063D4A9DF80430337007
:104DD800B0210020FFF7D2FDDFF8F88008244FF05B
:104DE800380906F8019F20464246B021FFF7C6FD64
:104DF8000834AE42A4B2F4D1324D334ADFF8D4803D
:104E080041F6DF23A5F5D7513924CC54F820B02139
:104E1800FFF7B4FD2D4A2C70B8210020FFF7AEFD36
:104E280005F11E0608244FF0380905F8019F2046B1
:104E38004246B821FFF7A2FD0834AE42A4B2F4D12D
:104E480041F6FF231848224A3921C154B821F820D5
:104E580002B0BDE8704FFFF791BD00BFDCDC002059
:104E68001CC7000824C7000834C700083CC700084E
:104E780044C70008CCC70008D4C70008DCC700082E
:104E8800E4C70008ECC70008F4C70008FCC700081E
:104E980004C800080CC8000814C800081CC800088A
:104EA80024C800082CC80008DCC4002034C8000846
:104EB8003ADD00203CC8000844C80008BADF0020DA
:104EC80054C80008BCDF00205CC8000864C800089B
:104ED8006CC800082CC7000880B584B000AF002358
:104EE800FB730023BB810023FB7202E1FA7A854B36
:104EF8001B68134484491846FFF748FBFB7A002BCC
:104F08000FD1814B1B78FB737F4B5B78BB817E4B4A
:104F18009B781B021AB2B7F90C3013431BB2BB8142
:104F2800E4E0FB7B0133FB73774B1B78FA7B9A42F7
:104F380066D0764A00218820FFF7B4FD0346FB803F
:104F4800BB8940F6183293423CD9BB8941F2C5125D
:104F5800934237D8BB896E4A92FBF3F36D491846E2
:104F680001F060FAFB8802336A4A00211846FFF70D
:104F780099FD0346FB80FB880233674A00211846E7
:104F8800FFF790FD0346FB80644A644B9B899BB204
:104F980023F400539BB29381604ABB8913815F4A13
:104FA8005E4B9B899BB243F400539BB29381BB89B0
:104FB800DAB2554B5A70BB891B0A9BB2DAB2524B14
:104FC8009A7008E0FB880233554A00211846FFF71B
:104FD80069FD0346FB80FB7B9BB21B029AB2514BD7
:104FE8001A80494AFB7B1370FA7A464B1B681344B4
:104FF80045491846FFF7B4F94B4AFB7A13707DE030
:10500800FB7A7F2B66D1414A00218820FFF74AFDB1
:1050180003463B81BB8940F6183293423CD9BB8991
:1050280041F2C512934237D8BB89394A92FBF3F350
:105038003849184601F0F6F93B890233354A002110
:105048001846FFF72FFD03463B813B890233324A5E
:1050580000211846FFF726FD03463B812F4A2F4BB8
:105068009B899BB223F400539BB293812B4ABB8943
:1050780013812A4A294B9B899BB243F400539BB264
:105088009381BB89DAB2204B5A70BB891B0A9BB249
:10509800DAB21D4B9A7008E03B890233204A00219E
:1050A8001846FFF7FFFC03463B81FB7B0133FB738C
:1050B800FB7B9BB21B029AB21A4B1A80124AFB7BEB
:1050C8001370104B1B6810491846FFF749F9164B27
:1050D80001221A700C4B5B78BB810B4B9B781B022F
:1050E8001AB2B7F90C3013431BB2BB81FB7A0133F8
:1050F800FB7297F90B30002BBFF6F8AE00BF1037E4
:10510800BD4680BD84000020A0A4002098C80008E7
:1051180080F0FA0230A60020A4C800080010014060
:10512800A8C80008A4A600205E000020114A124961
:10513800002313805380D3809380138153819381FC
:10514800D38113820D4A0B700D4913700D4A0B70F1
:105158000D4913600D4A0B703F2111700C491A4616
:105168005A540133B3F5E05FFAD10A4B1A6000F0E4
:105178005BBA00BF480000207D000020A0A60020E8
:105188007C00002068000020740000203800002007
:10519800DCC4002034000020B0F5804F0ED3A0F509
:1051A800B8435B12A0F5804206D4054AC0F3080054
:1051B80002EB432319547047024B9954704700BFC0
:1051C8009C000020DCC40020B0F5804F0FD3A0F570
:1051D800B8435B12A0F5804206D4064AC0F3080023
:1051E80002EB4323185C7047034B985C7047034BF2
:1051F800185C70479C000020DCC40020B4C800087C
:1052080038B50D460446C9B2FFF7C6FF601C290A27
:1052180080B2BDE83840FFF7BFBF10B50446013083
:1052280080B2FFF7D1FF01462046FFF7CDFF40EAE5
:10523800012080B210BD0000184B1A780AB370B56F
:10524800174A184C1178A9B9E189174A174D1278ED
:1052580000201870A389023B9BB20126022A2E70F7
:105268001846A3810ED0FFF7CBFF4FF03813C4F8D0
:105278000E3070BDE189013189B20020E1811070E2
:10528800E3E77047FFF7BCFFA07C000240F0FF0097
:10529800FFF7C3FFE081208270BD00BF7C000020C3
:1052A800A0A6002048000020740000207D000020F7
:1052B80080B584B000AF0346FB80FB88DBB2FE2BD1
:1052C80040F0E080724B1B88B3F5807F1CD1FB88CF
:1052D80047F6FE72934217D16E4BDB6A41F2747245
:1052E80093420BD16B4A6B4B1B889BB243F0010373
:1052F8009BB21380664B10221A8003E0654B41F283
:105308007472DA62BE23BEE00023FB73FB881B0ABB
:105318009BB2DBB2DB43BB73BB7B03F00103002B07
:1053280004D05D4B1A78FB7B1343FB73BB7B03F004
:105338000203002B04D0584B5A78FB7B1343FB73B2
:10534800BB7B03F00403002B04D0534B9A78FB7B00
:105358001343FB73BB7B03F00803002B04D04E4BB5
:10536800DA78FB7B1343FB73BB7B03F01003002B42
:1053780004D0494B1A79FB7B1343FB73BB7B03F0C7
:105388002003002B04D0444B5A79FB7B1343FB7357
:10539800BB7B03F04003002B04D03F4B9A79FB7B87
:1053A8001343FB7397F90E30002B04DA3A4BDA7982
:1053B800FB7B1343FB73FB8847F6FE72934225D1B0
:1053C800FB7B012B22D1324B1B88802B1ED0334B09
:1053D8001B6803F07043002B0CD02E4B41F2717206
:1053E800DA622C4A2B4B1B889BB243F001039BB219
:1053F80013800BE0274B40F2EA32DA62254A254B4C
:105408001B889BB243F001039BB21380FB7BDB43F9
:10541800FB731F4B1B8803F08F03002B05D0204B19
:105428001A78FB7B1340FB7306E000F01FFE03466F
:105438001A46FB7B1340FB731A4BDB8940F264521C
:1054480093421DD1154B1A68174B1B689A4207D017
:105458000F4B1B8823F080039AB20D4B1A800FE084
:105468000D4B00229A7100F011F90346002B05D06C
:10547800094B0122DA71064BC0221A80FF23FB7305
:10548800FB7B00E0FF2318461037BD4680BD00BFF8
:10549800A2A6002000400140D0A900206000002002
:1054A800E00A01084800002098000020C0B2FE2849
:1054B80000D070472DE97841CB0003F038024B4803
:1054C80001F007031343CC0603700BD5484B4FF488
:1054D80080521A8300BF00BF464B474C1B682360AD
:1054E800BDE87881480703D5444B1B68002B40D1A1
:1054F8003F4B4FF480525A8300BF00BF0D2922D181
:105508003F4A13881906E7D53A4E3B4C3368216861
:105518003C4DA3F67800884234D02988B1F57C6FD9
:1055280052D040F24C60814204BF02211180DFF862
:10553800F4E0354E354900220720AEF800202A80D5
:1055480032700870CBE70E29C6D12D4B1B889B07FC
:10555800C2D0284D284C2B682268A3F2AE61914234
:105568002A4927D00A78013AD2B2072A19D80A70EC
:10557800B5E7244B1B88002BBAD01D4B4FF4805243
:105588001A83B9E72A884AB9214922484988DFF8A5
:10559800888000680131A8F80010D8B101322A804B
:1055A8009DE707230B7000F0FFFC174A2B680021CA
:1055B800117094E7144E0A7896F800E001209040A4
:1055C80040EA0E003070CEE713481326012106800A
:1055D8001180ACE7114B01221A80FEF7F1F810494F
:1055E800B8F8000033682A880880D7E73800002018
:1055F80000040240680000209CA4002060000020F5
:10560800A2A600207E000020820000209400002036
:10561800480000209800002080000020640000203E
:10562800A0A400206C0000200D4A002313600D4A3E
:1056380013800D4A13800D4A012111700C4A07216D
:1056480011700C4A13800C4A13800C4A8021118077
:105658000B4A13600B4A13600B4A1360704700BF74
:10566800780000207E0000206400002082000020D6
:1056780094000020960000206C000020A2A60020C4
:1056880070000020980000206000002080B58EB0D7
:1056980000AF534B1B78022B5AD1524A514B9B896E
:1056A8009BB223F400539BB293814E4B1B899BB250
:1056B8001A464D4B93FBF2F37B617B694B4AA2FB85
:1056C80003235B097B617B6905337B61454A484954
:1056D8007B69B1FBF3F39BB21381464B1B78013313
:1056E800DAB2444B1A70434B1B7803F07F03DAB2EB
:1056F800404B1A70404B1B881B0A9BB2FB74FB7C07
:105708000133FB743D4AFB7C1370364B1B899BB2FB
:10571800DAB23A4B5A70334B1B899BB21B0A9BB2C5
:10572800DAB2364B9A70334B1B781A46344B1B68E7
:10573800134432491846FEF713FE2A4A294B9B891F
:105748009BB243F400539BB29381254B00221A70FD
:10575800FFF76AFFFCF7ECFD0346BB74BB7C012B2B
:1057680064D1284B1B68DA00274B1B681344254A71
:105778001360244B1B6821491846FEF707FF214B8D
:105788001B6801331F4A13604FF407621F4B1A80CE
:105798001F4B00221A801F4B1B8802339AB21D4BE5
:1057A8001A801D4B02221A60144B1A881B4B1A8050
:1057B8001B4B40221A801B4B01221A70154B1B8869
:1057C8001A460E4B9B5C072B04D940F24C62164BD1
:1057D8001A8003E04FF47C62134B1A80002389E39C
:1057E800300000200010014080F0FA021F85EB51C4
:1057F80020A107005E000020A4A60020A0A400208D
:105808008400002070000020900000206400002028
:105818008000002096000020600000206C0000201E
:10582800A2A60020820000207E000020BB7C022B64
:1058380040F05F83894B1B68DA00894B1B6813446F
:10584800864A1360854B1B6886491846FEF79EFEFC
:10585800824B1B680133814A1360834B4FF6FF72FA
:105868001A82804B1A78804BDA717E4B5A787E4BBD
:105878009A717C4B9A787C4B1A707A4BDA787A4B0F
:105888005A70784B1A79784B1A71764B5A79764B4D
:105898005A71744B9B791AB2724BDB791B021BB29B
:1058A80013431BB29AB2704BDA816E4B1B7A1AB251
:1058B8006C4B5B7A1B021BB213431BB29AB26A4B46
:1058C8009A81684B9A7A684B9A74664BDA7A664B77
:1058D800DA74644B1B7B5B08DBB2DB005BB203F062
:1058E80038035AB25F4B1B7B5B08DBB25BB203F039
:1058F80007035BB213435BB2DAB25C4B1A705A4BC4
:10590800DB7C5AB2574B1B7B43F00103DBB2DB0154
:105918005BB213435BB2DAB2534BDA74524BDA7CA4
:10592800514B1A754F4B5B7B1AB24E4B9B7B1B023C
:105938001BB213431BB29AB24B4B5A80494BDB7BC9
:105948001AB2484B1B7C1B021BB213431BB29AB200
:10595800474B1A80434B5B7C1AB2424B9B7C1B0221
:105968001BB213431BB29AB2414B5A803D4BDB7CAE
:105978001AB23C4B1B7D1B021BB213431BB29AB2DB
:105988003B4B9A80374B5A7D394BDA71354B9A7DB0
:10599800374B9A71334BDB7D1AB2324B1B7E1B029D
:1059A8001BB213431BB29AB22F4B5A812D4B5B7E0D
:1059B8001AB22C4B9B7E1B021BB213431BB29AB22A
:1059C800294B1A81274BDA7E2A4B1A70254B1A7FEE
:1059D800294B1A70234B5B7F03F00303DAB2274B82
:1059E8001A70274B00221A701F4BDB89002B00F01E
:1059F8002D811C4B1B7B03F02003002B4AD1002375
:105A0800FB86204B3B63204B1E221A601E4B1B68F3
:105A1800C3F30803134AD25C3B6B1A701A4B1B681A
:105A28000133194A1360184B1B68C3F30803002B92
:105A380001D100F06BFA3B6B01333B63FB8E013302
:105A4800FB86FB8EB3F5E05F01D1104B3B630E4B39
:105A58001A680F4B1B689A42D8D147E270000020A1
:105A680090000020A0A4002048000020380000205A
:105A7800400000207C0000207D00002074000020F1
:105A8800A0A60020DCC40020600000209C000020AC
:105A980098000020684B1B689BB2043B3B820023A4
:105AA800FB85664B1E221A60654BBB62634B1B6805
:105AB800C3F30803634AD35CED2B40F095805F4B3A
:105AC8001B6801335D4A13605C4B1B68C3F3080312
