:020000040800F2
:1000000000000120F98B0008498C0008498C000889
:10001000498C0008498C0008498C00080000000049
:10002000000000000000000000000000498C0008F3
:10003000498C000800000000498C0008498C000829
:10004000498C0008498C0008498C0008498C00083C
:10005000498C0008498C0008498C0008498C00082C
:10006000498C0008498C0008498C0008498C00081C
:10007000498C0008498C0008498C0008498C00080C
:10008000498C0008498C0008498C0008498C0008FC
:10009000498C0008498C0008498C0008498C0008EC
:1000A00069520008498C0008498C0008498C0008F6
:1000B000B55D0008498C0008015D0008498C000806
:1000C000498C0008498C0008498C0008498C0008BC
:1000D000498C0008498C0008498C0008498C0008AC
:1000E000498C0008498C0008498C0008498C00089C
:1000F000498C0008498C0008498C0008498C00088C
:10010000498C0008498C0008498C0008498C00087B
:10011000498C0008498C0008498C0008498C00086B
:10012000498C0008615D0008498C0008498C000872
:10013000498C0008498C0008498C0008498C00084B
:10014000498C0008498C0008498C0008498C00083B
:10015000498C0008498C0008498C0008498C00082B
:10016000498C0008498C0008498C0008498C00081B
:10017000498C0008498C0008498C0008498C00080B
:08018000498C0008498C0008BD
:1001880010B5054C237833B9044B13B10448AFF3C9
:1001980000800123237010BD280400200000000007
:1001A800088E000808B5034B1BB103490348AFF399
:1001B800008008BD000000002C040020088E000804
:1001C80080B485B000AF78600023FB730023BB7355
:1001D8000F237B737B68DB78002B39D0274BDB68D8
:1001E800DB431B0ADBB203F00703FB73FB7BC3F1A2
:1001F8000403BB737A7BFB7B42FA03F37B737B6854
:100208005B781A46BB7B02FA03F3FB737B689A7828
:100218007B7B1340DAB2FB7B1343FB73FB7B1B0135
:10022800FB73174A7B681B781344FA7B83F8002317
:10023800134A7B681B785B09DBB218467B681B781E
:1002480003F01F03012101FA03F342F820300FE005
:100258000B497B681B785B09DBB218467B681B7807
:1002680003F01F0301229A4000F1200341F82320E4
:1002780000BF1437BD465DF8047B704700ED00E011
:1002880000E100E080B483B000AF78607B681B6851
:1002980023F001027B681A607B6800221A607B6881
:1002A80000225A607B6800229A607B680022DA602C
:1002B8007B6800221A617B6821225A617B68464A62
:1002C800934203D1454B3D229A607EE07B68444AC5
:1002D800934204D1414B4FF474629A6075E07B6895
:1002E800404A934204D13D4B4FF474129A606CE03B
:1002F8007B683D4A934204D1384B4FF074629A6050
:1003080063E07B68394A934203D1344B384ADA6058
:100318005BE07B68374A934203D1304B364ADA6058
:1003280053E07B68354A934203D12C4B344ADA6058
:100338004BE07B68334A934204D1284B4FF03D523F
:10034800DA6042E07B68304A934203D12F4B3D226A
:100358009A603AE07B682E4A934204D12B4B4FF4C3
:1003680074629A6031E07B682A4A934204D1274B31
:100378004FF474129A6028E07B68274A934204D1AC
:10038800224B4FF074629A601FE07B68234A9342C5
:1003980003D11E4B164ADA6017E07B68204A934265
:1003A80003D11A4B144ADA600FE07B681D4A934266
:1003B80003D1164B124ADA6007E07B681A4A934267
:1003C80003D1124B4FF03D52DA6000BF0C37BD46E7
:1003D8005DF8047B704700BF106002400060024077
:1003E800286002404060024058600240706002404D
:1003F8003D00002088600240400F0020A0600240BD
:1004080000003D20B86002401064024000640240D1
:10041800286402404064024058640240706402400C
:1004280088640240A0640240B864024080B485B089
:1004380000AF786039600023FB607B681B68FB6055
:10044800FA68254B1340FB603B681A683B68DB6819
:100458001A433B685B691A433B689B691A433B68CC
:10046800DB691A433B681B6A1A433B685B6A1A4399
:100478003B689B6A1A433B685B6B1A433B689B6B00
:100488001343FA681343FB607B68FA681A607B6859
:100498005B69FB60FB6823F00703FB603B68DA6A73
:1004A8003B681B6B1343FA681343FB607B68FA686D
:1004B8005A613B681A697B685A603B685A687B686E
:1004C8009A603B689A687B68DA6000BF1437BD465B
:1004D8005DF8047B704700BF3F801CF080B487B094
:1004E80000AF7860396000237B6100233B61002303
:1004F800FB6000237B6176E001227B6902FA03F34B
:100508003B613B681A683B691340FB60FA683B69CA
:100518009A4265D17B681A687B695B00032101FAFE
:1005280003F3DB431A407B681A607B681A683B68F0
:100538001B7919467B695B0001FA03F31A437B6850
:100548001A603B681B79012B03D03B681B79022B8F
:100558002ED17B689A687B695B00032101FA03F35B
:10056800DB431A407B689A607B689A683B685B79D2
:1005780019467B695B0001FA03F31A437B689A60AA
:100588007B685A687B699BB2194601238B40DB4321
:100598001A407B685A607B685B683A6892791146B2
:1005A8007A6992B201FA02F292B21A437B685A60EF
:1005B8007B68DA687B699BB25B00032101FA03F36D
:1005C800DB431A407B68DA607B68DA683B68DB7972
:1005D80019467B695B0001FA03F31A437B68DA600A
:1005E8007B6901337B617B690F2B85D900BF1C3781
:1005F800BD465DF8047B704780B485B000AF786075
:100608000B467B8013467B700023FB600023BB6096
:100618007A787B8803F007039B0002FA03F3FB60F8
:100628007B88DB089BB218467B88DB089BB21A469E
:100638007B68083253F822207B8803F007039B006D
:100648000F2101FA03F3DB4302EA03017B6800F19F
:10065800080243F822107B88DB089BB21A467B68A5
:10066800083253F82220FB681343BB607B88DB0801
:100678009BB21A467B680832B96843F8221000BF5B
:100688001437BD465DF8047B7047000080B483B022
:1006980000AF78600B46FB70FB78002B06D00A4948
:1006A800094B1A6B7B6813430B6306E00649064B3C
:1006B8001A6B7B68DB4313400B6300BF0C37BD46E6
:1006C8005DF8047B704700BF0038024080B483B0F7
:1006D80000AF78600B46FB70FB78002B06D00A4908
:1006E800094B1A6C7B6813430B6406E00649064BFA
:1006F8001A6C7B68DB4313400B6400BF0C37BD46A4
:100708005DF8047B704700BF0038024080B483B0B6
:1007180000AF78600B46FB70FB78002B06D00A49C7
:10072800094B5A6C7B6813434B6406E00649064B39
:100738005A6C7B68DB4313404B6400BF0C37BD46E3
:100748005DF8047B704700BF0038024080B485B074
:1007580000AF786039600023FB817B681B88FB81D0
:10076800FB8903F44153FB813B681A883B685B882B
:1007780013439AB23B689B8813439AB23B68DB8861
:1007880013439AB23B681B8913439AB23B685B894F
:1007980013439AB23B689B8913439AB23B68DB893F
:1007A80013439AB2FB891343FB817B68FA891A8049
:1007B8007B689B8B9BB223F400639AB27B689A8315
:1007C8003B681A8A7B681A8200BF1437BD465DF8F9
:1007D800047B704780B483B000AF78600B46FB7031
:1007E800FB78002B08D07B681B889BB243F0400342
:1007F8009AB27B681A8007E07B681B889BB223F05B
:1008080040039AB27B681A8000BF0C37BD465DF87A
:10081800047B704780B483B000AF78600B46FB70F0
:10082800FB78002B08D07B681B889BB243F40053ED
:100838009AB27B681A8007E07B681B889BB223F416
:1008480000539AB27B681A8000BF0C37BD465DF82A
:10085800047B704780B485B000AF786039600023AE
:10086800FB817B681B88FB817B68294A934213D0F4
:100878007B68284A93420FD07B68B3F1804F0BD036
:100888007B68254A934207D07B68244A934203D069
:100898007B68234A934208D1FB8923F07003FB81CC
:1008A8003B685A88FB891343FB817B681D4A934246
:1008B8000CD07B681C4A934208D0FB8923F4407310
:1008C800FB813B681A89FB891343FB817B68FA89A2
:1008D8001A803B685A687B68DA623B681A887B68CA
:1008E8001A857B680A4A934203D07B68094A934277
:1008F80004D13B689B7A9AB27B681A867B6801228E
:100908009A8200BF1437BD465DF8047B704700BF6C
:1009180000000140000401400004004000080040BD
:10092800000C0040001000400014004080B483B068
:1009380000AF78600B46FB70FB78002B08D07B6813
:100948001B889BB243F001039AB27B681A8007E0C8
:100958007B681B889BB223F001039AB27B681A80DC
:1009680000BF0C37BD465DF8047B704780B485B086
:1009780000AF7860396000237B810023FB8100236E
:10098800BB817B681B8C9BB223F001039AB27B6806
:100998001A847B681B8CFB817B689B88BB817B6886
:1009A8001B8B7B817B8923F070037B817B8923F000
:1009B80003037B813B681A887B8913437B81FB890E
:1009C80023F00203FB813B689A89FB891343FB816F
:1009D8003B685A88FB891343FB817B681E4A934214
:1009E80003D07B681D4A934223D1FB8923F0080377
:1009F800FB813B68DA89FB891343FB81FB8923F080
:100A08000403FB813B689A88FB891343FB81BB89FC
:100A180023F48073BB81BB8923F40073BB813B68DB
:100A28001A8ABB891343BB813B685A8ABB89134323
:100A3800BB817B68BA899A807B687A891A833B680C
:100A48009A687B685A637B68FA891A8400BF1437EE
:100A5800BD465DF8047B704700000140000401407A
:100A680080B485B000AF7860396000237B810023B3
:100A7800FB810023BB817B681B8C9BB223F0100396
:100A88009AB27B681A847B681B8CFB817B689B8885
:100A9800BB817B681B8B7B817B8923F4E0437B8153
:100AA8007B8923F440737B813B681B881B029AB2C5
:100AB8007B8913437B81FB8923F02003FB813B68FF
:100AC8009B891B019AB2FB891343FB813B685B88B6
:100AD8001B019AB2FB891343FB817B68224A93422C
:100AE80003D07B68214A93422BD1FB8923F08003F2
:100AF800FB813B68DB891B019AB2FB891343FB81AD
:100B0800FB8923F04003FB813B689B881B019AB259
:100B1800FB891343FB81BB8923F48063BB81BB89B9
:100B280023F40063BB813B681B8A9B009AB2BB8994
:100B38001343BB813B685B8A9B009AB2BB89134312
:100B4800BB817B68BA899A807B687A891A833B68FB
:100B58009A687B689A637B68FA891A8400BF14379D
:100B6800BD465DF8047B7047000001400004014069
:100B780080B485B000AF7860396000237B810023A2
:100B8800FB810023BB817B681B8C9BB223F48073A1
:100B98009AB27B681A847B681B8CFB817B689B8874
:100BA800BB817B689B8B7B817B8923F070037B8176
:100BB8007B8923F003037B813B681A887B89134375
:100BC8007B81FB8923F40073FB813B689B891B02B3
:100BD8009AB2FB891343FB813B685B881B029AB27C
:100BE800FB891343FB817B68224A934203D07B68CD
:100BF800214A93422BD1FB8923F40063FB813B6894
:100C0800DB891B029AB2FB891343FB81FB8923F41E
:100C18008063FB813B689B881B029AB2FB89134364
:100C2800FB81BB8923F48053BB81BB8923F4005328
:100C3800BB813B681B8A1B019AB2BB891343BB81EA
:100C48003B685B8A1B019AB2BB891343BB817B68F3
:100C5800BA899A807B687A899A833B689A687B68A4
:100C6800DA637B68FA891A8400BF1437BD465DF8D9
:100C7800047B7047000001400004014080B485B047
:100C880000AF786039600023BB8100237B8100239B
:100C9800FB817B681B8C9BB223F480539AB27B68E0
:100CA8001A847B681B8C7B817B689B88FB817B68B3
:100CB8009B8BBB81BB8923F4E043BB81BB8923F4B5
:100CC8004073BB813B681B881B029AB2BB891343E4
:100CD800BB817B8923F400537B813B689B891B0381
:100CE8009AB27B8913437B813B685B881B039AB26A
:100CF8007B8913437B817B68124A934203D07B68CC
:100D0800114A93420AD1FB8923F48043FB813B6853
:100D18001B8A9B019AB2FB891343FB817B68FA8982
:100D28009A807B68BA899A833B689A687B681A6458
:100D38007B687A891A8400BF1437BD465DF8047B46
:100D4800704700BF000001400004014080B483B038
:100D580000AF78600B46FB70FB78002B0CD07B68EB
:100D6800B3F844309BB26FEA43436FEA53439AB2F5
:100D78007B68A3F8442009E07B68B3F844309BB251
:100D8800C3F30E039AB27B68A3F8442000BF0C3764
:100D9800BD465DF8047B704780B485B000AF7860CD
:100DA8000B467B800023FB817B681B89FB81FB89C9
:100DB80023F07003FB81FA897B881343FB817B68EE
:100DC800FA891A8100BF1437BD465DF8047B704765
:100DD80080B483B000AF78600B467B807B689B88CB
:100DE8009BB223F070039AB27B689A807B689B88D9
:100DF8009AB27B8813439AB27B689A8000BF0C37FB
:100E0800BD465DF8047B704780B483B000AF78605E
:100E18000B467B807B681B899BB223F007039AB241
:100E28007B681A817B681B899AB27B8813439AB2C4
:100E38007B681A8100BF0C37BD465DF8047B70479C
:100E480080B483B000AF78600B467B807B681B89D9
:100E58009BB223F080039AB27B681A817B681B8956
:100E68009AB27B8813439AB27B681A8100BF0C3709
:100E7800BD465DF8047B704780B584B000AF284B51
:100E88001B881A46274B1B68134480337B6000235A
:100E9800FB730CE0FA7B7B68D018FB7B5B02224A71
:100EA8001344194603F028F8FB7B0133FB73FB7BE3
:100EB8000D2BEFD97B680E331C49184603F01CF83C
:100EC8000023BB810AE0BB8903F5D053BA891749CF
:100ED800895C154AD154BB890133BB81BB89FF2B7F
:100EE800F1D90023FB720EE0FA7A7B68134403F110
:100EF8000F00FB7A5B020E4A1344194602F0FCFF0E
:100F0800FB7A0133FB72FB7A0D2BEDD9044B1B885E
:100F18001D339AB2024B1A8000BF1037BD4680BD00
:100F280074AE0020AC07002084B1002070AC002013
:100F38006C08002080B584B000AF254B1B881A468A
:100F4800244B1B68134480337B600023FB730CE045
:100F5800FA7B7B68D018FB7B5B021F4A1344194657
:100F680002F0B4FEFB7B0133FB73FB7B0D2BEFD947
:100F78000023BB810AE0BB89BA8902F5D052164921
:100F8800895C164AD154BB890133BB81BB89FF2BCD
:100F9800F1D97B680E331149184602F097FE0023F9
:100FA800FB720EE0FA7A7B68134403F10F00FB7AB8
:100FB8005B020B4A1344194602F088FEFB7A0133A0
:100FC800FB72FB7A0D2BEDD900BF1037BD4680BDF3
:100FD80074AE0020AC07002084B1002070AC002063
:100FE8006C0800202DE97041284B984285B038DD07
:100FF8004724274B90FBF3F000234FF00A0E4FF0E5
:10100800200C4FF02E0804AA90FBFEF51A440EFBA4
:10101800150646F03006284602F80C6C6CB3012B16
:1010280002D18DF806800223002D03F1010222DC93
:101038004D1E18460DF1040E10F80E6005F8016FEC
:1010480010F1FF30F8D234B120208854CA18622039
:101058009470D0701A1D0023D0B28B5405B0BDE82F
:1010680070810C4B9842C3BF42F210734D2490FB21
:10107800F3F00024C0E71346C5E79A07D4D5013337
:1010880004AA1A4402F80CCCCEE700BFFFC99A3B69
:10109800809698003F420F0010B5274C002021464B
:1010A80002F02AFF237803F0FD03E92B37D0B4F8C8
:1010B800FE214AF655239A4233D104F5DF7304F52D
:1010C800FF711A790B3A012A02D910338B42F8D1F1
:1010D80098681A4B1849186002F00EFF237803F03D
:1010E800FD03E92B1FD1B4F80B30B3F5007F1CD1F9
:1010F800637B082B1BD1E36A022B1AD1E389E269CF
:10110800616A0F481A44237C01FB0323103B0360E8
:10111800238D01FB0322094B00201A6010BD00BF7C
:10112800E1E7012010BD022010BD032010BD0420FE
:1011380010BD052010BD00BF70AC0020B407002012
:10114800B807002090B597B000AF78607B68DA00E8
:10115800A74B1B6813447B65012387F84F30002396
:1011680087F84E300023A7F84C30002387F84B301F
:10117800A04B3B623B6A03F5DF531F33FB613B6ABD
:101188007B64FB690D3B3B643B6C00221A700022B8
:101198005A7000F079BD9849786D02F0ADFE964B13
:1011A8003B65002387F83F3000F03EBD3B6D1B7860
:1011B800002B04D1002387F84F3000F03ABD3B6D77
:1011C8001B78E52B07D13B6D20333B65002387F85F
:1011D8004B3000F024BD3B6DDB7A0F2B40F00783CA
:1011E8003B6D1B7803F03F03FB74FB7C032B40F043
:1011F800058197F84B30013387F84B307B6C03F14E
:1012080026023B6D997F3B6DDB7F9B08DBB218465E
:1012180080001844400003441B01DBB20B44DBB2DE
:1012280013707B6C03F125023B6D197F3B6D5B7F6F
:101238009B08DBB2184680001844400003441B0199
:10124800DBB20B44DBB213707B6C03F124023B6D01
:10125800197E3B6D5B7E9B08DBB218468000184404
:10126800400003441B01DBB20B44DBB213707B6C00
:1012780003F123023B6D997D3B6DDB7D9B08DBB25F
:10128800184680001844400003441B01DBB20B449D
:10129800DBB213707B6C03F122023B6D197D3B6D51
:1012A8005B7D9B08DBB2184680001844400003446D
:1012B8001B01DBB20B44DBB213707B6C03F1210220
:1012C8003B6D997C3B6DDB7C9B08DBB2184680004C
:1012D8001844400003441B01DBB20B44DBB213701B
:1012E8007B6C03F120023B6D197C3B6D5B7C9B089A
:1012F800DBB2184680001844400003441B01DBB2EF
:101308000B44DBB213707B6C03F11F023B6D997BBE
:101318003B6DDB7B9B08DBB218468000184440001D
:1013280003441B01DBB20B44DBB213707B6C03F18B
:101338001E023B6D597A3B6D9B7A9B08DBB21846BF
:1013480080001844400003441B01DBB20B44DBB2AD
:1013580013707B6C03F11D023B6DD9793B6D1B7AD1
:101368009B08DBB2184680001844400003441B0168
:10137800DBB20B44DBB213707B6C03F11C023B6DD8
:1013880059793B6D9B799B08DBB21846800018445D
:10139800400003441B01DBB20B44DBB213707B6CCF
:1013A80003F11B023B6DD9783B6D1B799B08DBB2BF
:1013B800184680001844400003441B01DBB20B446C
:1013C800DBB213707B6C03F11A023B6D59783B6DED
:1013D8009B789B08DBB21846800018444000034401
:1013E8001B01DBB20B44DBB2137000F015BC00BF6D
:1013F800B80700206C08002070AC0020FB7C022B92
:1014080040F0FD8097F84B30013387F84B307B6C08
:1014180003F119023B6D997F3B6DDB7F9B08DBB2C3
:10142800184680001844400003441B01DBB20B44FB
:10143800DBB213707B6C03F118023B6D197F3B6DB7
:101448005B7F9B08DBB218468000184440000344C9
:101458001B01DBB20B44DBB213707B6C03F1170288
:101468003B6D197E3B6D5B7E9B08DBB218468000A6
:101478001844400003441B01DBB20B44DBB2137079
:101488007B6C03F116023B6D997D3B6DDB7D9B0800
:10149800DBB2184680001844400003441B01DBB24D
:1014A8000B44DBB213707B6C03F115023B6D197DA5
:1014B8003B6D5B7D9B08DBB21846800018444000FA
:1014C80003441B01DBB20B44DBB213707B6C03F1EA
:1014D80014023B6D997C3B6DDB7C9B08DBB21846A4
:1014E80080001844400003441B01DBB20B44DBB20C
:1014F80013707B6C03F113023B6D197C3B6D5B7CB5
:101508009B08DBB2184680001844400003441B01C6
:10151800DBB20B44DBB213707B6C03F112023B6D40
:10152800997B3B6DDB7B9B08DBB218468000184437
:10153800400003441B01DBB20B44DBB213707B6C2D
:1015480003F111023B6D597A3B6D9B7A9B08DBB224
:10155800184680001844400003441B01DBB20B44CA
:10156800DBB213707B6C03F110023B6DD9793B6DD4
:101578001B7A9B08DBB218468000184440000344DD
:101588001B01DBB20B44DBB213707B6C03F10F025F
:101598003B6D59793B6D9B799B08DBB218468000FF
:1015A8001844400003441B01DBB20B44DBB2137048
:1015B8007B6C03F10E023B6DD9783B6D1B799B0860
:1015C800DBB2184680001844400003441B01DBB21C
:1015D8000B44DBB213707B6C03F10D023B6D597841
:1015E8003B6D9B789B08DBB218468000184440008E
:1015F80003441B01DBB20B44DBB213700CE3FB7C2E
:10160800012B40F0098397F84B30013387F84B30B2
:101618007B6C03F10C023B6D997F3B6DDB7F9B0874
:10162800DBB2184680001844400003441B01DBB2BB
:101638000B44DBB213707B6C03F10B023B6D197F1B
:101648003B6D5B7F9B08DBB2184680001844400066
:1016580003441B01DBB20B44DBB213707B6C03F158
:101668000A023B6D197E3B6D5B7E9B08DBB2184618
:1016780080001844400003441B01DBB20B44DBB27A
:1016880013707B6C03F109023B6D997D3B6DDB7D2B
:101698009B08DBB2184680001844400003441B0135
:1016A800DBB20B44DBB213707B6C03F108023B6DB9
:1016B800197D3B6D5B7D9B08DBB2184680001844A2
:1016C800400003441B01DBB20B44DBB213707B6C9C
:1016D800DA1D3B6D997C3B6DDB7C9B08DBB21846C1
:1016E80080001844400003441B01DBB20B44DBB20A
:1016F80013707B6C9A1D3B6D197C3B6D5B7C9B0862
:10170800DBB2184680001844400003441B01DBB2DA
:101718000B44DBB213707B6C5A1D3B6D997B3B6DA0
:10172800DB7B9B08DBB2184680001844400003446A
:101738001B01DBB20B44DBB213707B6C1A1D3B6DD3
:10174800597A3B6D9B7A9B08DBB218468000184497
:10175800400003441B01DBB20B44DBB213707B6C0B
:10176800DA1C3B6DD9793B6D1B7A9B08DBB21846B6
:1017780080001844400003441B01DBB20B44DBB279
:1017880013707B6C9A1C3B6D59793B6D9B799B0858
:10179800DBB2184680001844400003441B01DBB24A
:1017A8000B44DBB213707B6C5A1C3B6DD9783B6DD4
:1017B8001B799B08DBB2184680001844400003449C
:1017C8001B01DBB20B44DBB213703B6D5A783B6DE7
:1017D8009B789B08DBB219468900194449000B44E1
:1017E8001B01DBB21344DAB27B6C1A7014E23B6D56
:1017F800BB6197F84B30002B56D097F84B30013B24
:1018080087F83E3097F83E30002B2FD097F83E30BF
:101818001A4652001A4492001344DBB2053B87F87B
:101828003E3023E097F83E307A6C13441B782E2B19
:1018380006D097F83E307A6C13441B78002B10D1F1
:1018480097F83E307A6C134400221A7097F83E30AD
:101858009AB2B7F84C3013449BB20133A7F84C3016
:1018680008E097F83E30013387F83E3097F83E306D
:10187800262BD7D997F83E30272B65D17B6C26339A
:1018880000221A707B6C25332E221A707B6C24334D
:101898002E221A707B6C23332E221A70B7F84C3024
:1018A8002733A7F84C304FE0BB69DB7A03F0080315
:1018B800002B03D03B6D20333B65B0E1BB69DB7A7D
:1018C80003F01003002B0FD0BB691B782E2B0BD114
:1018D800BB695B78202B07D197F84E30002B03D1DA
:1018E8003B6D20333B659AE17B6C083300221A700C
:1018F8007B6C0733BA69D2791A707B6C0633BA6984
:1019080092791A707B6C0533BA6952791A707B6CBC
:101918000433BA6912791A707B6C0333BA69D278C6
:101928001A707B6C0233BA6992781A707B6C013337
:10193800BA6952781A70BB691A787B6C1A70B7F852
:101948004C300933A7F84C303B6C1A785B781B0293
:101958001343FB82FB690D3BBB63FB8A3A6A134462
:101968007B63082387F83330002387F8323000235D
:1019780087F83130B3E0BB69DB7A03F01003002B42
:1019880048D0BB6B1B889BB21BB2002B3ADABB6BEF
:101998001B889BB2C3F30C033A6A1344FB627B6B4C
:1019A8001A78FB6A1B789A420ED297F84E2097F85D
:1019B8003130D31A87F8323097F84E3087F8313003
:1019C800BB6B0D33BB6382E07B6B1A78FB6A1B78B9
:1019D8009A4277D17B6B01337B63FB6A0133FB62ED
:1019E8007B6B1B78002B72D07B6B1B78002B6ED027
:1019F80097F83330013B87F8333097F83330002BB2
:101A0800CDD164E097F84E2097F83130D31A87F893
:101A180032306BE0BB6B1B889BB21BB2002B03DA26
:101A2800BB6B0D3BBB6355E0BB6B1B889BB2C3F321
:101A38000C033A6A1344BB62FB8A3A6A13447B6319
:101A48007B6B1A78BB6A1B789A420ED297F84E20A5
:101A580097F83130D31A87F8323097F84E3087F834
:101A68003130BB6B0D33BB6331E07B6B1A78BB6ADB
:101A78001B789A4228D17B6B01337B63BB6A0133A5
:101A8800BB627B6B1B78002B12D1BB6A1B78002BC7
:101A98001CD097F84E2097F83130D31A87F8323097
:101AA80097F84E3087F83130BB6B0D33BB630EE0CF
:101AB80097F83330013B87F8333097F83330002BF1
:101AC800BED104E000BF02E000BF00E000BFBB6B76
:101AD8000D3BBB6397F83130013387F8313097F805
:101AE800312097F84E309A42FFF445AF97F83230DC
:101AF800002B2CD0002387F8273020E097F82720E8
:101B080013465B0013449B0013443A6CD11897F8B2
:101B180027305A1C13465B0013449B0013443A6C4D
:101B28001A440B461468506891681C6058609960A4
:101B3800127B1A7397F82730013387F8273097F804
:101B4800272097F832309A42D8D3BB6B3B643B6C62
:101B5800FA8A1A80BB69DB7A03F01003002B09D0DC
:101B68003B6C1B889BB26FEA43436FEA53439AB2BC
:101B78003B6C1A80BB691A7A3B6C9A70BB695A7ABB
:101B88003B6CDA70BB699A7A3B6C1A71BB699B8AA9
:101B98009BB21B02BA69528B92B213441A463B6C31
:101BA800C3F80520BB69DA693B6CC3F80920002338
:101BB80087F84B3097F84E30013387F84E30B7F836
:101BC8004C303A6A13447B6497F84E305A1C1346DB
:101BD8005B0013449B0013445B42FA6913443B6463
:101BE8003B6CB7F84C201A8097F84E309BB21A46D7
:101BF80052001A44920013449AB2B7F84C30D31AE0
:101C08009BB203F5DF531F33BB82BB8A6C2B03D80F
:101C1800002387F84F300CE03B6D20333B6597F885
:101C28003F30013387F83F3097F83F300F2B7FF66E
:101C3800BDAA97F84F30002B2CD07B6D01337B6504
:101C4800194B1B687A6DD31A03F00703002B1BD1BD
:101C58007B68DB09FB60154B1A68FB681344144961
:101C6800184602F049F97B689B00114A13441B6827
:101C78007B607B686FF0704293420DD07B68DA001E
:101C8800094B1B6813447B6597F84F30002B7FF492
:101C980082AA02E000BF00E000BF97F84E30184665
:101CA8005C37BD4690BD00BFB8070020B4070020D0
:101CB80070AC002080B586B000AF78600023FB755B
:101CC8008A4B00221A60894B1B68894A934240F26A
:101CD8000481864B00221A60864B1B680133854AB3
:101CE80013607B6800221A707B681B7923F001035C
:101CF800DAB27B681A717B681B7923F00203DAB2C7
:101D08007B681A717B681B7903F00803002B2AD0C3
:101D18007B685B780133DAB27B685A707B685B78E2
:101D2800042B08D17B685B889BB2DBB201221721A8
:101D3800184602F0C1F97B685B78082B0BD17B68E9
:101D48005B889BB2DBB200221721184602F0B4F977
:101D58007B6800225A7000BF00BF00BF00BF00BFF1
:101D680000BF00BF00BF644B80225A614FF49673D6
:101D7800BB8203E000BFBB8A013BBB82BB8A002B4E
:101D8800F8D15E4B1B693B813B891B0A9BB2DBB2D6
:101D980003F01F03FB75FB7D03F00203002B06D045
:101DA8007B681B7943F00203DAB27B681A714FF43F
:101DB80096737B8203E000BF7B8A013B7B827B8A30
:101DC800002BF8D14C4B01225A614FF496733B8299
:101DD80003E000BF3B8A013B3B823B8A002BF8D1E2
:101DE800464B1B693B813B891B0A9BB2DBB203F064
:101DF8001F03FB75FB7D03F00103002B69D07B6893
:101E08001B7943F00103DAB27B681A7161E03A4A40
:101E18007B681B78194601238B4053614FF49673F6
:101E2800FB8103E000BFFB89013BFB81FB89002BA1
:101E3800F8D1324B1B693B813B891B0A9BB2DBB251
:101E480003F01F03FB754FF49673BB8103E000BFDB
:101E5800BB89013BBB81BB89002BF8D1FB7D002BE3
:101E680030D00023FB7229E0FA7DFB7A42FA03F3B3
:101E780003F00103002B1ED07B681B78002B05D1D3
:101E8800FB7A002B0CD10023FB7514E07B681B78D0
:101E9800072B05D1FB7A012B02D10023FB750AE041
:101EA8007B681B781A4692001344DAB2FB7A134413
:101EB800FB75FB7D16E0FB7A0133FB72FB7A042B82
:101EC800D2D900E000BF7B681B780133DAB27B68A7
:101ED8001A707B681B78072B99D9FB7D002B3FF480
:101EE800F2AEFB7D18461837BD4680BD041000E0F1
:101EF800C0EA21014404002000040240000002401E
:101F080090B591B000AF0446084611461A462346DC
:101F1800FB710346BB710B467B7113463B718F4BBC
:101F2800BB62BB6A03F5DF531F337B620CE1FB79AD
:101F38005A1C13465B0013449B0013445B427A6AA5
:101F480013443B62FA793B79B2FBF3F3DBB2FB83D0
:101F5800FB799AB23B799BB2F98B11FB03F39BB2E5
:101F6800D31AFB83FB8B0133FB83092387F83F30AC
:101F7800FB8BDB009BB21E221946082002F03EF9BB
:101F88003B6A1B889BB21BB2002B4BDA744B754A19
:101F98001A60FA797B799A421BD1FB8B5B0103F5B6
:101FA800C0530133704A7021D1540023BB630CE045
:101FB800FB8B5B0103F5C0530233BA6B13446A4AC7
:101FC8007121D154BB6B0133BB63BB6B1C2BEFDDA1
:101FD8001AE0FB8B5B0103F5C0530133624A3821D9
:101FE800D15400237B630CE0FB8B5B0103F5C053EA
:101FF80002337A6B13445C4A3921D1547B6B013329
:102008007B637B6B1C2BEFDDFB8BDB009BB2574AA2
:102018001946092002F01AF997F83F300A3387F871
:102028003F303CE04E4B4F4A1A60FA797B799A422E
:1020380013D100233B630CE0FB8B5B0103F5C0531A
:1020480001333A6B1344484A7021D1543B6B013336
:102058003B633B6B1D2BEFDD12E00023FB620CE0C2
:10206800FB8B5B0103F5C0530133FA6A13443E4A04
:102078003821D154FB6A0133FB62FB6A1D2BEFDD6B
:102088003B6A9B78542B09D13B6ADB78412B05D1FD
:102098003B6A1B79502B01D100BF00E000BF97F8C5
:1020A8003F3098B2FB8BDB009BB2013B99B23B6A95
:1020B8001B889BB2C3F30C03BA6A13441A4602F096
:1020C80057F90023FB763B6A9B783B763B6ADB78C3
:1020D8007B763B6A1B79BB76FB8BDB009BB2013BB3
:1020E8009BB207F118021946E42002F041F93B6A55
:1020F8001B889BB21BB2002B23DB3B6AD3F8093049
:102108001A4607F1080319461046FEF76BFF034607
:102118007B777A7F07F108031146184602F0D0F85A
:1021280003467B777B7F9BB2C3F1E00398B2FB8BBE
:10213800DB009BB2013B9BB207F10802194602F093
:1021480017F9FB790133FB71FA79BB799A42FFF4ED
:10215800EEAE00BF4437BD4690BD00BF6C080020FE
:1021680078AE00203801002084B1002090020020C1
:102178002DE9704FC24BC34E1B78C34D8EB00593EB
:10218800FEF7D8FE02F0A4F9C04A0021402002F070
:102198005DF8BF4A0021482002F058F8BD4A0021E6
:1021A800502002F053F8BC4A0021582002F04EF8A3
:1021B800BA4A0021602002F049F8B94A0021682093
:1021C80002F044F8B74A0021702002F03FF8782066
:1021D800B54A002102F03AF800239B468DF83030CA
:1021E8008DF83130ADF832308DF8343000930393E8
:1021F80002930220FEF7A6FF83B2AC4A0493013B88
:102208009BB20993A2FB03231B09A8490790421E0E
:1022180003EB430081FB0241C3EBC00311449BB2B3
:10222800D2170A93C2EB21130693DFF8948208248D
:1022380021461E22082001F0E1FF40461E223821D7
:1022480008F1200806F0D4FD08344645A4B2EFD1C1
:102258001024214608342A46F820A4B201F0F6FFDB
:10226800B82CF6D1009B049A079917339BB2994270
:10227800C8BF1A460893069B0192002B39D0009BD1
:102288001A468A4BA3FB0239069BC9F30F1901337F
:102298004FF0140898FBF3F818FB09F91FFA89F9AD
:1022A8005FFA88F810244FF0000A08E001F0CEFF2A
:1022B8000AF1010A0834BAF1150FA4B219D041F68F
:1022C8005F0303EB4A111FFA8AF2794B39209145D3
:1022D80058542A4621464FF0F800E7D8B8F1000FC5
:1022E800E4D008F1FF38734A5FFA88F801F0AEFFCE
:1022F800DEE7019B9DF800405FFA83F803F1FF39A0
:102308002046172341465FFA8BF21FFA89FAFFF736
:10231800F7FD5FFA8AF30B930CA8FFF7CBFC05389F
:102328001E28F9D801A353F820F000BFCD240008D7
:102338002123000821230008212300082123000865
:102348006124000821230008212300082123000814
:102358002123000821230008212300082123000845
:102368002123000821230008212300082123000835
:102378002123000821230008212300084124000804
:102388002124000821230008212300082123000814
:10239800C523000821230008212300082123000861
:1023A80021230008B1230008FEF766FD344B9DF891
:1023B80014201A7000200EB0BDE8708F0BF10102D6
:1023C80002EB42013C4B02EB81029B1A19888AB24C
:1023D800090440F1B880D3F8050028B902219871A2
:1023E800D871187259710846009B002B40F08980FB
:1023F800C2F30C03314A995C2E29134400F0838000
:10240800009B029303931A460099029BCDF80CB0E7
:10241800029193460093EDE6009B5B4568D1BBF1C2
:10242800000F3FF479AF173BABF117029BB21FFACD
:1024380082FB01930093F8E6079A0BF101039A4295
:102448003FF46AAFCB4569D017230B9A4146204623
:10245800D346FFF755FD5FE7BBF1000F3FF45CAFD4
:102468000BF1FF331FFA83FB009B5B4560D85FFAD3
:102478008BF2911CC9B210461723FFF741FD4BE7B9
:102488005C04002085CC002060020020B001002000
:10249800B8010020C0010020C8010020D0010020A0
:1024A800D8010020E0010020E8010020C94216B24E
:1024B80084B10020680200206B2400206C080020F2
:1024C800A5C900200BF1010E049B1FFA8EFE9E4544
:1024D8003FF422AF019B734533D05FFA8EF2511C53
:1024E800501EC9B2C0B21723F346FFF709FD13E720
:1024F8001723224641462046FFF702FDDDF800B0CB
:102508000AE700237DE75B782E2B7FF479AF029BE7
:10251800DDF80CB000935A46194677E7019B16334D
:102528001FFA83FB049B9B4506D2089B019381E716
:10253800173B9BB201937DE70A9BDDF824B001931A
:1025480078E79B4676E79A78542A03D000200EB0A5
:10255800BDE8708FDA78412AF8D11A79502AF5D176
:102568000849094AD3F80900D3F805301360086010
:10257800FEF782FC054B9DF814201A7001200EB05E
:10258800BDE8708F68080020400500205C0400202A
:102598002DE97847174DDFF860A088464FEAD01933
:1025A80000F07F042E46DAF800003146484401F076
:1025B800A3FC05EB84031A460433116831B10134D6
:1025C800802CF8D109F101090024ECE7B8F1010FDA
:1025D80003D004EBC910BDE87887DAF80000054994
:1025E8006FF070434844136001F070FB04EBC910AE
:1025F800BDE8788770AC0020B407002003682DE997
:10260800704F0133174E0360036832689B1A5B07EB
:1026180026D1044601210220FFF7BAFF3568236856
:10262800DFF844B0DFF84480ED431D448246DBF810
:1026380000004FEA9529414648446D0801F05CFCCA
:1026480005F4FE75DBF8000045F808A0484441464B
:1026580001F052FC55F80820336803EBC2032360ED
:10266800BDE8708FB8070020B407002070AC0020C8
:102678000378012B03D1FF23037043707047BF2BEE
:1026880085BF03F554730370002304234370704718
:1026980038B5094D04462946206801F02DFC002371
:1026A8005A01D8B2525D32B10133102BF8D120460D
:1026B800FFF7A4FFEFE738BD70AC0020A0F161037D
:1026C800192B02D82038C0B27047DF28FAD87047D3
:1026D8002DE9704FCA4C86B0012102202668257961
:1026E800FFF756FFC74B01901B68A4F87E0006AAA7
:1026F80003EBC60342F8043D86467346164602922B
:102708001B0C502284F86E20A4F878306FF0350244
:102718006FF075034FF000085420412184F87220AF
:1027280084F87A2084F87330492284F87B30522365
:1027380084F86C0084F86D10304684F86F8084F853
:10274800708084F8718084F8808084F8818084F8AF
:10275800828084F8838084F8742084F8762084F852
:102768007C2084F8753084F8773084F87D30FFF762
:102778008FFF082D06464ED8002D40F08881202373
:1027880084F864302023022D84F8653040F28F816C
:10279800E079FFF793FF032D84F8660040F28A8101
:1027A800207AFFF78BFF042D84F8670040F28581BB
:1027B800607AFFF783FF052D84F8680040F2808176
:1027C800A07AFFF77BFF062D84F8690040F27B8131
:1027D800E07AFFF773FF082D84F86A0040F07681ED
:1027E800207BFFF76BFF84F86B00874B87491C68D9
:1027F800D3F804E0059875016A186C50DC689D6888
:10280800D4601C69C2F804E095601461D3F814E040
:102818009D69DC692AE14246294604F1050808E079
:10282800FFF74CFFA3180132D2B2052A83F86400DF
:102838000CD818F8013B0139202B1846C9B2EFD142
:10284800C2F105039942EBDD052AF2D994F8642018
:1028580094F865E094F8660094F86710D30143EAA9
:10286800520303EB0E02C2F3460343EAC2131A18DB
:10287800C2F3460343EAC2135A1894F868E094F87E
:1028880069106348C2F3460343EAC21303EB0E021E
:10289800C2F3460343EAC2135A18C2F3460343EA93
:1028A800C21303F17E02C2F34603053543EAC2139D
:1028B8003133EAB2A0FB02E0C3F3460194F86CE0BE
:1028C80041EAC3117144830894F86DE0C1F34600EE
:1028D80040EAC1100133704403F1FF38C0F3460EDB
:1028E80008EB48014EEAC01001EBC10194F86EE014
:1028F80001EBC1010A4400EB0E0184F83F107E2170
:1029080084F86A10312184F86B1060192E21D2B234
:1029180061550C2A3F49C0F8011009D8C2F10C02D0
:10292800D2B2013205300121039306F061FA039B0C
:10293800DFF8D890384D4FF0000A0F2284F83D2078
:1029480084F83EA084F84CA084F84DA0402208EBFF
:10295800480108EB81011A43053184F83220DFF879
:10296800BCB0214400220FE0BEF10A0F40D891F814
:1029780000E000F802EDFFF77BFE01320D2A01F1BD
:1029880001010BF1020B11D0042A58465FFA82FEAE
:10299800EAD891F800E000F805EDFFF769FE01328A
:1029A8000D2A01F101010BF1020BEDD1710109EBC7
:1029B80001032A6849F801200136EA686868A968AD
:1029C800DA60F6B22A69586099606869A9691A617B
:1029D800102EEA6958619961DA6121D018F0FF0375
:1029E80084F832A04FF0000229D003F1FF38AEE797
:1029F80008788BF800005846FFF73AFEBDE700BF9D
:102A08006C080020B8070020D008002070AC002017
:102A18004FECC44E746170009E080020A40800208A
:102A28002C49059801F052F90298FFF731FE18F089
:102A3800FF03064684F832A04FF00002D5D1264B9A
:102A480024491868D3F804E09D68740109EB04026E
:102A580049F80400DC681869C2F804E09560D4609D
:102A68001061D3F814E09D69DC690598C2F814E098
:102A78009561D46101F02AF9059B184A019823F061
:102A8800704343EA0676166006B0BDE8708F607939
:102A9800FFF714FE012D84F864003FF473AEA079AB
:102AA800FFF70CFE022D84F865003FF671AE202377
:102AB80084F86630202384F86730202384F868304F
:102AC800202384F86930202384F86A30202384F88E
:102AD8006B308AE670AC0020D00800208804002003
:102AE8002DE9704FC74B96B01A78079200243F2201
:102AF8001A708DF8544001F0EBFC2146C24A402080
:102B080001F0A4FB2146C14A482001F09FFB214661
:102B1800BF4A502001F09AFB2146BE4A582001F0D6
:102B280095FB2146BC4A602001F090FB2146BB4A38
:102B3800682001F08BFB2146B94A702001F086FB22
:102B48002146B84AB84C782001F080FBB74BB84A08
:102B58001A6041F6E1233B25E55441F6E223B54AE4
:102B6800E55441F6E323B721E55441F6E42309206F
:102B7800E55441F6E523E55441F6E623E55401F032
:102B8800F7FB41F6FC23B721E55441F6FD23AA4A99
:102B9800E55441F6FE23E420E55401F0E9FB072360
:102BA800782103F5D75201331C2BA154F9D13823CE
:102BB800ADF82E30082300258DF8303002238DF82B
:102BC8002C508DF82D502C46AB46AA4602950495FC
:102BD800069503930398FEF7B5FA1623421E05904F
:102BE80092FBF3F30893DFF8608208264FF0380968
:102BF8001E223146082001F001FB08F11E0243465F
:102C080003F8019F9342FBD10836B6B2B82E08F1FB
:102C18002008EDD1102631460836884AF820B6B289
:102C280001F014FBB82EF6D1059A0AF11603DBB2AF
:102C38009342A8BF13460193089B53BB16235A46D9
:102C48000199DFF80892DFF808825046FFF758F933
:102C58000BA8FFF72FF89DF830309A0708D51928E8
:102C68007FD04ED8052800F0A4800A2800F01B81E8
:102C7800DE0740F13081232840F02D81614B9DF81B
:102C88001C201A700020BAE0019EDDF804A0B346AB
:102C9800A9E7089B1622BAFBF2F2D2B20133142636
:102CA80096FBF3F6F3B216FB02F6B6B24FF0100835
:102CB8004FF0000941F65F0202EB49125A483921E8
:102CC80011541FFA89F2964213D893B1013BDBB233
:102CD8005B4A09934146F82001F0B8FA099B09F1CB
:102CE800010908F10808B9F1150F1FFA88F8E1D1B0
:102CF800A4E7524A09934146F82001F0A7FA099B34
:102D0800EDE71E286AD0232800F0A9801A28AFD141
:102D1800002C9DD0013C002217219DF82E00E4B222
:102D280001F0CAF921460DA801F0CAFA383080B27C
:102D3800ADF82E005CB9C208C2F11B0292B2B821EC
:102D480001F05CFA0DAAB721392001F011FB01222C
:102D580017219DF82E0001F0AFF904238DF82D30CE
:102D680076E7AC423FF474AFC4B1002217219DF856
:102D78002E0001F0A1F90134E4B221460DA801F0BA
:102D88009FFA383080B2ADF82E0001221721C0B268
:102D980001F092F904238DF82D3059E71422B82157
:102DA800382001F02BFA0DAAB721382001F0E0FAFB
:102DB800E1E70BF10106059BF6B2B3423FF448AFD9
:102DC800019BB3423FF460AF0BF102015846162352
:102DD8003246C9B2FFF794F8B34639E7002D3FF4FD
:102DE80037AF184A039B1360157100230DA8D9B299
:102DF8008D422FD8034B9DF81C201A70012016B065
:102E0800BDE8708F5C04002070010020780100206C
:102E180080010020880100209001002098010020F6
:102E2800A0010020A801002084B1002078AE002075
:102E3800380100206A8F0008758F000860020020A2
:102E4800680200206C080020A4C90020108F000828
:102E5800388F0008D1181C5C4C710133C7E75B0739
:102E68004FF003024FF0B8014FF0E4000DD501F028
:102E7800C5F9A74AB721E42001F07AFA9DF8303065
:102E880023F004038DF83030E2E601F0B7F9A14AE7
:102E9800B721E42001F06CFA9DF8303043F00403C8
:102EA8008DF83030D4E6BBF1000F3FF4D1AE0BF112
:102EB800FF36F6B2B24504D9AAF11603DBB2019384
:102EC800E3E60BF1010116233246C9B23046FFF79B
:102ED80017F8B346BCE61E2833D10D230BFB03328B
:102EE8008D4B9B1A198808048AB27FF5B1AED3F8C6
:102EF800051021B9022058719971D9711972D3F846
:102F08000510BAF1000F17D1C2F30C03834A9818C1
:102F18009B5C2E2B10D143782E2B0DD1DDF808B0F9
:102F2800DDF810A00391029BCDF808B09B46049BE6
:102F3800CDF810A09A464DE600230391029304931E
:102F4800F1E7590740F1968018F8006006F11C0374
:102F5800DBB2182B00F29080714A22FA03F3DA07E9
:102F68002BD5182D3FF474AE6E4B069A1B689B1A2E
:102F7800062B1FD816AB234413F8253CF52B5BD042
:102F88004DD8E42B5AD044D8E12B08BFFE26AC42DA
:102F980004F1FF34E4B259D121460DA801F090F9AB
:102FA8003830013D80B20122B821EDB2ADF82E00D3
:102FB80001F024F95B4B1B6806939DF83030DB0762
:102FC80071D5302E69D1002C3FF442AE013CE4B2F9
:102FD8002346AB4254D3013DEDB216AB2B4400223D
:102FE80021460DA803F8242C01F06AF9383080B284
:102FF800C208C2F11B0292B2B821ADF82E0001F04E
:10300800FDF80DAAB721002C43D0382001F0B0F903
:103018009DE6E62B14D0E72B08BFF526B7E7FC2B77
:1030280012D003D8FA2B08BFE726B0E7FD2B09D04A
:10303800FE2B08BFFC26AAE7FA26A8E7E626A6E79D
:10304800FD26A4E7E426A2E7E126A0E723469D4261
:1030580007D8013DEDB216AB2B44002203F8242C0F
:10306800A8E716AA1A44013312F8231C02F8241CF4
:10307800DBB2ECE719F80060002E3FF4E9AD9CE7FD
:1030880016AA1A44013312F8231C02F8241CDBB2D6
:103098009FE7392001F06CF959E63F2E2DD806F04C
:1030A8000F06214B9E5D182D3FF4D2AD0DAB5A197A
:1030B8002B46A34224D816AB234421460DA803F877
:1030C800246C01F0FDF8383080B2C208C2F11B024E
:1030D80092B2B8210135ADF82E00EDB201F08EF8AC
:1030E80016AB2B44002203F8242C01340DAAB72177
:1030F8003820E4B201F03CF93FE6203EF6B2D2E7D0
:1031080012F8011C02F80119013BDBB2D1E700BF3C
:10311800758F0008798F00086B2400206C08002048
:103128000900000144040020608F000808B5FDF77D
:1031380001FFFFF7D5FC01280DD000B108BDFDF750
:103148009BFE0D4B4FF480721A804FF4FA70BDE865
:10315800084002F09FB8FFF7BBFA084B084A1B6803
:1031680003EBC0001060FDF787FE0649064A0223FC
:103178000B60138008BD00BF72AE0020B8070020A6
:1031880040050020680800206408002080B582B04F
:1031980000AF01214FF48040FDF798FA03237B71BB
:1031A8000023BB7102233B710123FB714FF4604381
:1031B8003B603B4619461548FDF790F905220D215D
:1031C8001248FDF719FA05220E211048FDF714FAE6
:1031D80005220F210D48FDF70FFA03237B71002309
:1031E800BB7101233B710123FB714FF400533B601A
:1031F8003B4619460648FDF771F9054B4FF4005256
:103208001A8300BF0837BD4680BD00BF00040240D6
:103218000008024080B485B000AF0346FB714FF44C
:103228008053FB8106E0FB895A1EFA81002B01D1ED
:1032380000231EE0124B1B899BB203F00203002BF4
:10324800F1D0104AFB7913704FF48053FB8106E0EC
:10325800FB895A1EFA81002B01D1002309E0084B93
:103268001B899BB203F00103002BF1D0054B1B789F
:10327800DBB218461437BD465DF8047B704700BFC3
:10328800003800400C38004080B483B000AF4FF4E1
:103298008053FB8006E0FB885A1EFA80002B01D180
:1032A80000231EE0124B1B899BB203F00203002B84
:1032B800F1D0104BFF221A704FF48053FB8006E0C8
:1032C800FB885A1EFA80002B01D1002309E0084B25
:1032D8001B899BB203F00103002BF1D0054B1B782F
:1032E800DBB218460C37BD465DF8047B704700BF5B
:1032F800003800400C38004080B584B000AF034669
:103308003960FB711346BB71FF23FB733B46BB60FF
:103318004FF48053BB81FF20FFF77CFFFB7943F01C
:103328004003DBB21846FFF775FFBB6803331B7811
:103338001846FFF76FFFBB6802331B781846FFF784
:1033480069FFBB6801331B781846FFF763FFBB684A
:103358001B781846FFF75EFFBB791846FFF75AFF40
:103368000AE0FFF791FF0346FB73BB895A1EBA8137
:10337800002B01D1002303E0FB7BFF2BF1D0FB7B6B
:1033880018461037BD4680BD90B59FB000AF0023EA
:10339800A7F874300023A7F872300023BB6300231A
:1033A800A7F87030B54B1B7823F00203DAB2B34BA1
:1033B8001A70B34B4FF441721A80B14AB04B1B8854
:1033C8009BB243F038039BB21380AD4AAC4B1B88C9
:1033D8009BB243F040039BB21380AA4B4FF40052B8
:1033E8005A83002387F8773006E0FFF74DFF97F8F8
:1033F8007730013387F8773097F877304F2BF4D947
:10340800952200210020FFF777FF034687F87630E2
:1034180012E0FFF739FF034687F87630B7F87430C3
:103428000133A7F87430B7F87430B3F57A4F03D97D
:103438000123A7F87030F5E197F87630012BE8D131
:10344800904B4FF400521A838E4B4FF400525A831C
:1034580087224FF4D5710820FFF74EFF034687F8FF
:1034680076300023A7F8743014E0FFF70DFF034609
:1034780087F87630B7F874300133A7F87430B7F8A6
:103488007430802B06D9B7F8703043F00203A7F8E0
:103498007030C7E197F87630012BE6D1794B4FF4BD
:1034A80000521A830023A7F87430764B4FF4005269
:1034B8005A830023A7F874300023A7F87230FFF767
:1034C800E3FE034687F87630B7F872300133A7F881
:1034D8007230B7F87430802B06D9B7F8703043F4DF
:1034E8000063A7F870309DE197F87630FF2BE6D19E
:1034F800FF2200213720FFF7FFFE034687F87630CA
:1035080015E0FFF7C1FE034687F87630B7F872304A
:103518000133A7F87230B7F87230B3F57A5F06D97D
:10352800B7F8703043F48063A7F870307AE197F801
:103538007630FF2BE5D00023A7F87230FFF7A4FE02
:10354800034687F87630B7F872300133A7F872303F
:10355800B7F87430802B06D9B7F8703043F480532D
:10356800A7F870305EE197F87630FF2BE6D1FF229E
:103578004FF080412920FFF7BFFE034687F87630D9
:103588000023A7F8723015E0FFF77EFE034687F8A0
:103598007630B7F872300133A7F87230B7F8723066
:1035A800B3F57A5F06D9B7F8703043F40073A7F81B
:1035B800703037E197F87630FF2BE5D0314B4FF478
:1035C80000521A83B7F874300133A7F87430B7F88B
:1035D80074304FF6DC72934206D9B7F8703043F076
:1035E8000403A7F870301DE197F87630002B7FF4BC
:1035F8005CAF244B4FF400521A83224B4FF4005215
:103608005A83002200213B20FFF776FE034687F805
:1036180076301C4B4FF400521A83FF20FFF7FAFD57
:1036280097F87630002B06D0B7F8703043F00803CF
:10363800A7F87030F6E0134B4FF400525A83FF227C
:103648004FF400711020FFF757FE034687F87630D5
:103658000C4B4FF400521A83FF20FFF7DBFD97F85D
:103668007630002B06D0B7F8703043F01003A7F877
:103678007030D7E0002387F877300BE0870400200C
:10368800003800400008024000BF97F87730013347
:1036980087F8773097F877303F2BF5D9BF4ABF4B7B
:1036A8001B889BB223F040039BB21380BB4ABB4BE1
:1036B8001B889BB223F038039BB21380B74AB74BE1
:1036C8001B889BB243F008039BB21380B34AB34BE9
:1036D8001B889BB243F040039BB21380B04B4FF45E
:1036E80000521A83002387F8773007E0FF20FFF79E
:1036F80091FD97F87730013387F8773097F877306E
:10370800272BF3D9A64B4FF400525A8300220021ED
:103718000920FFF7F1FD034687F8763097F87630F1
:10372800002B06D0B7F8703043F02003A7F87030AC
:1037380078E00023A7F8743000BFFFF7A5FD034623
:10374800FE2BFAD1002387F877300FE097F87740FF
:10375800FFF79AFD03461A4607F17803234403F856
:10376800742C97F87730013387F8773097F87730EB
:103778000F2BEBD9FFF788FDFFF786FD884B4FF439
:1037880000521A83FF20FFF745FD0023A7F8743085
:10379800834B4FF400525A83002200210A20FFF77E
:1037A800ABFD034687F8763097F87630002B19D0B2
:1037B800B7F8703043F08003A7F8703032E0FFF7B5
:1037C80063FD034687F87630B7F874305A1CA7F8BB
:1037D8007420802B06D9B7F8703043F48073A7F8AB
:1037E80070301FE097F87630FE2BE8D1002387F879
:1037F80077300FE097F87740FFF746FD03461A4603
:1038080007F17803234403F8642C97F877300133E1
:1038180087F8773097F877300F2BEBD9FFF734FD1F
:10382800FFF732FD5E4B4FF400521A83FF20FFF77B
:10383800F1FCB7F87030202B00F05181202B12DCFE
:10384800022B78D0022B04DC002B2AD0012B5AD073
:10385800A5E1082B00F01381102B00F02881042B20
:1038680000F099809BE1B3F5007F7CD0B3F5007F31
:103878000ADC802B00F06381B3F5807F00F077814C
:10388800402B00F044818AE1B3F5006F00F0C78057
:10389800B3F5805F00F0DB80B3F5806F00F0A780A0
:1038A8007DE17B7BBB633B7B1B02BA6B1343BB6332
:1038B800FB7A1B04BA6B1343BB63BB6B0133BB635B
:1038C800BB6B9B02BB63BB6BA3F5B223A3F25F4345
:1038D800344A1360BB6B07F124021146184601F005
:1038E800F1FCFB791A4607F124031946104601F04A
:1038F800E9FC00233B772C4B1B7843F00203DAB238
:10390800294B1A704BE10023FB6608E0FB6E03F5B8
:10391800C253264A0221D154FB6E0133FB66FB6E6B
:103928001F2BF3DD224B234A1A60234A1021002063
:1039380000F01EFD33E10023BB6608E0BB6E03F513
:10394800C2531A4A0221D154BB6E0133BB66BB6E07
:103958001F2BF3DD164B174A1A60184A1021002056
:1039680000F006FD1BE100237B6608E07B6E03F593
:10397800C2530E4A0221D1547B6E01337B667B6EA3
:103988001F2BF3DD0A4B0B4A1A600D4A1021002049
:1039980000F0EEFC03E100233B661CE00038004029
:1039A80000080240AC0700208704002084B10020F2
:1039B80078AE002038010020808F00089C8F000816
:1039C800B88F00083B6E03F5C253774A0221D154E1
:1039D8003B6E01333B663B6E1F2BF3DD734B744A22
:1039E8001A60744A1021002000F0C2FCD7E00023BE
:1039F800FB6508E0FB6D03F5C2536B4A0221D15405
:103A0800FB6D0133FB65FB6D1F2BF3DD674B684ACC
:103A18001A60694A1021002000F0AAFCBFE00023C8
:103A2800BB6508E0BB6D03F5C2535F4A0221D15460
:103A3800BB6D0133BB65BB6D1F2BF3DD5B4B5C4A74
:103A48001A605E4A1021002000F092FCA7E00023D3
:103A58007B6508E07B6D03F5C253534A0221D154BC
:103A68007B6D01337B657B6D1F2BF3DD4F4B504A1C
:103A78001A60534A1021002000F07AFC8FE00023DE
:103A88003B6508E03B6D03F5C253474A0221D15418
:103A98003B6D01333B653B6D1F2BF3DD434B444AC4
:103AA8001A60484A1021002000F062FC77E00023E9
:103AB800FB6408E0FB6C03F5C2533B4A0221D15476
:103AC800FB6C0133FB64FB6C1F2BF3DD374B384A6F
:103AD8001A603D4A1021002000F04AFC5FE00023F4
:103AE800BB6408E0BB6C03F5C2532F4A0221D154D2
:103AF800BB6C0133BB64BB6C1F2BF3DD2B4B2C4A17
:103B08001A60324A1021002000F032FC47E00023FE
:103B18007B6408E07B6C03F5C253234A0221D1542D
:103B28007B6C01337B647B6C1F2BF3DD1F4B204ABE
:103B38001A60274A1021002000F01AFC2FE0002309
:103B48003B6408E03B6C03F5C253174A0221D15489
:103B58003B6C01333B643B6C1F2BF3DD134B144A66
:103B68001A601C4A1021002000F002FC17E0002314
:103B7800FB6308E0FB6B03F5C2530B4A0221D154E7
:103B8800FB6B0133FB63FB6B1F2BF3DD074B084A11
:103B98001A60114A1021002000F0EAFB00BF00BFA4
:103BA8007C37BD4690BD00BF84B1002078AE0020B0
:103BB80038010020E08F00080890000830900008C5
:103BC8005890000880900008A0900008C490000851
:103BD800E4900008049100082491000880B584B09E
:103BE80000AF03463960FB711346BB712E4B2F4A59
:103BF8001A60FB79012B14D10023FB6008E0FB68F5
:103C080003F5C0532A4A0221D154FB680133FB60F3
:103C1800FB681F2BF3DD274A0021002000F0A8FBDA
:103C280013E00023BB6008E0BB6803F5C053204ADB
:103C38000221D154BB680133BB60BB681F2BF3DD85
:103C48001D4A0021002000F093FBBB79013B032BA8
:103C580022D801A252F823F0713C00087D3C0008EC
:103C6800893C0008953C0008144A0021602000F0B7
:103C78007FFB11E0124A0021602000F079FB0BE085
:103C8800104A0021602000F073FB05E00E4A002175
:103C9800602000F06DFB00BF4FF4FA5001F0FAFA13
:103CA80000BF1037BD4680BD78AE00203801002027
:103CB80084B10020449100085491000864910008E0
:103CC800749100088091000890910008854AF8B521
:103CD8004FF4005E844E854B854FA2F81AE00D46DE
:103CE8000446FF211A899207FCD539701A89D00732
:103CF800FCD53A78013ED2B200F0E280FF2AF1D139
:103D080021461820FFF7F8FA002840F0DF80774AAC
:103D180013899907FCD5764B744AFE2119701389CB
:103D2800DB07FCD5724A714B117805F1100005F5D7
:103D3800047519898F07FCD510F8101C11701989A2
:103D4800CE07FCD5117819898907FCD510F80F1C06
:103D580011701989CF07FCD5117819898E07FCD500
:103D680010F80E1C11701989C907FCD5117819892A
:103D78008F07FCD510F80D1C11701989CE07FCD5DA
:103D8800117819898907FCD510F80C1C117019894C
:103D9800CF07FCD5117819898E07FCD510F80B1CB4
:103DA80011701989C907FCD5117819898F07FCD5B5
:103DB80010F80A1C11701989CE07FCD511781989D9
:103DC8008907FCD510F8091C11701989CF07FCD593
:103DD800117819898E07FCD510F8081C11701989FB
:103DE800C907FCD5117819898F07FCD510F8071C6D
:103DF80011701989CE07FCD5117819898907FCD566
:103E080010F8061C11701989CF07FCD5117819898B
:103E18008E07FCD510F8051C11701989C907FCD547
:103E2800117819898F07FCD510F8041C11701989AD
:103E3800CE07FCD5117819898907FCD510F8031C21
:103E480011701989CF07FCD5117819898E07FCD50F
:103E580010F8021C11701989C907FCD51178198945
:103E68008F07FCD510F8011C11701989CE07FCD5F5
:103E7800117810308542C9B27FF45BAFFF2910D1A9
:103E88001C481A4B1A4D0E461A899107FCD52E70FC
:103E98001A89D207FCD529780138C9B21CD0FF2964
:103EA800F2D001F01F01052904D021460422012087
:103EB800FFF794FE0B4B4FF400521A830020F8BD15
:103EC800012221461046FFF789FEF3E72146022228
:103ED8000120FFF783FEEDE7214603220120FFF7CB
:103EE8007DFEE7E70008024001D0070000380040E7
:103EF8000C3800409E860200F0B583B06A4A0190F3
:103F08006A4E6B4B6B4F4FF400500D465083FF21A8
:103F18001A899007FCD539701A89D207FCD53C78E4
:103F2800013EE4B200F0B380FF2CF1D12046FFF748
:103F380071F95120FFF76EF99DF80700FFF76AF94C
:103F48009DF80600FFF766F99DF80500FFF762F98E
:103F58009DF80400FFF75EF92046FFF75BF9544B24
:103F680054484FF6FB711A899607FCD504701A89D4
:103F7800D207FCD502780139D2B200F08E80FE2A31
:103F8800F1D1FF244B4A4A4B05F11000264605F5AE
:103F9800047516701989CF07FCD5117800F8101C24
:103FA80014701989C907FCD5117800F80F1C147012
:103FB8001989CF07FCD5117800F80E1C14701989DF
:103FC800C907FCD5117800F80D1C14701989CF07A2
:103FD800FCD5117800F80C1C14701989C907FCD598
:103FE800117800F80B1C14701989CF07FCD51178CB
:103FF80000F80A1C14701989C907FCD5117800F853
:10400800091C14701989CF07FCD5117800F8081C11
:1040180014701989C907FCD5117800F8071C1470A9
:104028001989CF07FCD5117800F8061C1470198976
:10403800C907FCD5117800F8051C14701989CF0739
:10404800FCD5117800F8041C14701989C907FCD52F
:10405800117800F8031C14701989CF07FCD5117862
:1040680000F8021C14701989C907FCD5117800F8EA
:10407800011C103085428CD1FFF706F9FFF704F9CF
:10408800094B4FF4005200201A8303B0F0BD0122FF
:1040980001990220FFF7A2FDF2E7022210460199DA
:1040A800FFF79CFDECE700BF0008024002D00700C4
:1040B800003800400C38004080B485B000AF03469B
:1040C800FB710B46BB7113467B71FB79DB08BB7236
:1040D800FB7903F00703802242FA03F37B72BB7972
:1040E800DB00FB73FB7B1F4A32F81330BB810023D4
:1040F800FB722DE07B79002B0DD0BA89BB7A134473
:10410800B989BA7A0A441849895C7A7A0A43D1B2D9
:10411800154AD15411E0BA89BB7A1344B989BA7ADD
:104128000A4411498A5C51B297F90920D24352B224
:104138000A4052B2D1B20C4AD154FB7B0133FB7313
:10414800FB7B084A32F81330BB81FB7A0133FB72E0
:10415800FB7A072BCED900BF1437BD465DF8047B28
:10416800704700BF9802002084B1002080B487B057
:1041780000AF3B600346FB710B46BB7113467B7176
:10418800BB799BB2DB00FB82FB8A1A4A32F81330F8
:10419800BB82FB79FB72FA7A7B791344BB720023EA
:1041A800FB741EE0FB7AFB600CE0BA8AFB681344E0
:1041B8003A681178104AD1543B6801333B60FB6878
:1041C8000133FB60BA7AFB689A42EEDCFB8A013362
:1041D800FB82FB8A074A32F81330BB82FB7C01332F
:1041E800FB74FB7C072BDDD900BF1C37BD465DF88F
:1041F800047B70479802002084B100202DE978479D
:10420800C0F3C70808EB0205DFF83890EDB2454562
:1042180039F8113014DD01F10806DFF82CA00C463E
:10422800A5EB0805B6B2434401340AEB0300A4B277
:104238002A46002104F0DCFDB44239F81430F2D1EA
:10424800BDE878879802002084B1002070B41A4B2A
:104258001A4D33F81140167805EBD0004D1CADB25D
:10426800065533F81550567846558C1CA4B2CD1C0B
:1042780033F8144096780655ADB20C1D33F8155036
:10428800D6784655A4B24D1D33F814401679065514
:10429800ADB28C1D33F8155056794655A4B2073186
:1042A80033F814409579055589B2D27933F811302D
:1042B800C25470BC704700BF9802002084B100202F
:1042C800B9B3FF2970B536D0284A0023D2F800E0E8
:1042D80001381D460FE002F18044BF2AA4F16204B0
:1042E80013D8202A38D19EF801200133DBB21544B7
:1042F8009942ADB214D910F8012FA2F1210602F1AA
:1043080080445D2EA4F12104E5D8DEF808200133AD
:1043180032F82420DBB205EBD2259942ADB2EAD8B7
:10432800481E81B29EF8020010FB01F00544A8B2B5
:1043380070BD084670470578002185B10131C9B2C2
:10434800435C002BFAD10029BED1084B0D46D3F8A7
:1043580000E04FF6FF71E5E7013989B2E2E7034B68
:104368004FF6FF71D3F800E0DCE700BF78AE00201D
:104378002DE9704F88B013460692524A1B7812688E
:10438800514D0492009007914FF0800A002B00F0E5
:104398008180202B00F08380A3F12100C0B25D282A
:1043A80000F28980049B01B29A6832F8213002EB4E
:1043B8008102C3F3440BD90A94780591C3F384129C
:1043C800DB07079B9B44049B58BF6442DE78DB688D
:1043D80024B206FB004013FA80FC00983B4C00F026
:1043E80007031FFA8BFB0193C308C9B234F81B807B
:1043F8000293002A3DD0059B002B3AD0531E009A09
:104408005BFA83F301320139013352FA81F19BB22D
:1044180003931FFA81F98022DDF808E00199009BD7
:104428000EEB08004AFA01F12E564CB226EA0401B6
:1044380029549CF800100A4218BF344303F10103C1
:104448009BB218BF2C54520804BF0CF1010C8022F7
:10445800994503F007014FEAD30EE1D10BF1010BA7
:104468001FFA8BFB194B33F81B80039B9B45D3D159
:104478000098049B06999A784B7810440246059850
:1044880010FA82F292B200920A4601320692002B8A
:104498007FF47FAF00BF009808B0BDE8708F00BF01
:1044A800049B00995878069A0144537889B20132DE
:1044B800009106926AE7BF2B7FF668AF623BD8B2DD
:1044C80070E700BF78AE002084B100209802002079
:1044D8002DE9704F944E954ADFF8C4824FF0393475
:1044E800002182B0084634607460FFF7AFFE904A3E
:1044F80000210820FFF7AAFE8D4A00211020FFF7AF
:10450800A5FE8B4A00211820FFF7A0FE884A00214B
:104518002020FFF79BFE874A00212820FFF796FE00
:10452800854A00213020FFF791FE844A0021382077
:10453800FFF78CFE4FF03A33F36033617361B36079
:104548007F4A00218020FFF781FE7E4A00218820D3
:10455800FFF77CFE7C4A00219020FFF777FE7B4A1C
:1045680000219820FFF772FE794A0021A020FFF76A
:104578006DFE784A0021A820FFF768FE764A0021E0
:10458800B020FFF763FE754A0021B820FFF75EFEF2
:10459800B461F461724A0021C020FFF757FE714AE6
:1045A8000021C820FFF752FE6F4A0021D020FFF7F4
:1045B8004DFE5F4A0021D820FFF748FE5C4A0021E3
:1045C800E020FFF743FE5A4A0021E820FFF73EFEAD
:1045D800574A0021F020FFF739FE3546634A00218B
:1045E800F820FFF733FE3923614A05F8203F0821F8
:1045F8000020FFF72BFE3E3608244FF0380905F857
:10460800019F204642460821FFF720FE0834B542A4
:10461800A4B2F4D141F63F035648574A574DDFF844
:1046280080914FF0390B00F803B00821F820FFF70C
:104638000DFE4FF0100ACDF804B0AB469DF80430DB
:104648004F4A0BF81E3D51460020FFF7FFFDAAF127
:104658000806B6B208244FF038080BF8018F204638
:104668004A463146FFF7F2FD08345D45A4B2F4D15D
:104678009DF804306B705146424AF820FFF7E6FD7A
:10468800414B20350AF1080AAB421FFA8AFAD4D105
:10469800A3F11E063D4A9DF804303370B021002076
:1046A800FFF7D4FDDFF8F88008244FF0380906F842
:1046B800019F20464246B021FFF7C8FD0834AE42AC
:1046C800A4B2F4D1324D334ADFF8D48041F6DF2367
:1046D800A5F5D7513924CC54F820B021FFF7B6FD01
:1046E8002D4A2C70B8210020FFF7B0FD05F11E06F9
:1046F80008244FF0380905F8019F20464246B821A2
:10470800FFF7A4FD0834AE42A4B2F4D141F6FF236A
:104718001848224A3921C154B821F82002B0BDE80E
:10472800704FFFF793BD00BF84C9002048010020E7
:10473800500100205801002060010020680100207D
:1047480050040020F0010020F801002000020020A1
:104758000802002010020020180200202002002079
:1047680028020020300200203802002040020020E9
:104778004802002084B1002050020020E2C9002035
:10478800580200206002002062CC00207002002045
:1047980064CC0020780200208002002088020020DB
:1047A8004804002080B582B000AF0023FB710023CD
:1047B800BB7146E0BA79274B1B6813442649184653
:1047C800FFF79AFBBB79002B03D1234B1B78FB71B6
:1047D80034E0FB790133FB711F4B1B78FA799A425D
:1047E80014D0FB799BB21B029AB21C4B1A801A4A4E
:1047F800FB791370BA79174B1B681344164918468E
:10480800FFF764FA164ABB7913701EE0BB797F2B59
:1048180014D1FB790133FB71FB799BB21B029AB26D
:104828000E4B1A800C4AFB7913700A4B1B680A4915
:104838001846FFF74BFA0A4B01221A70BB7901336D
:10484800BB7197F90630002BB4DA00BF0837BD46B4
:1048580080BD00BFAC07002070AC002074AE002003
:10486800860400201B4A1C49002310B4138053807F
:10487800D3809380138153819381D3811382174A04
:104888000B7017491370174A0B7017491360174AB2
:104898000B703F211170164A0120022182E80300A3
:1048A8001448154AC024194620F8134022F813105A
:1048B8000133522BF8D1002310491A465A540133B8
:1048C800B3F5E05FFAD10E4B5DF8044B1A6000F0C7
:1048D800DDB900BF700400205806002070AE00202B
:1048E800F005002094040020440500205C0400200A
:1048F8005C060020480500209C04002084B10020AC
:1049080058040020B0F5804F0ED3A0F5B8435B12D1
:10491800A0F5804206D4054AC0F3080002EB432301
:1049280019547047024B9954704700BF6C08002017
:1049380084B10020B0F5804F0FD3A0F5B8435B12C7
:10494800A0F5804206D4064AC0F3080002EB4323D0
:10495800185C7047034B985C7047034B185C7047B2
:104968006C08002084B10020289C000838B50D464A
:104978000446C9B2FFF7C6FF601C290A80B2BDE829
:104988003840FFF7BFBF10B50446013080B2FFF7CB
:10499800D1FF01462046FFF7CDFF40EA012080B253
:1049A80010BD000080B584B000AF0346FB80FB88D3
:1049B800DBB2FE2B40F097804D4B1B88B3F5807F10
:1049C8001CD1FB8847F6FE72934217D1494BDB6A2C
:1049D80041F2747293420BD1464A464B1B889BB2F4
:1049E80043F001039BB21380414B10221A8003E06D
:1049F800404B41F27472DA62BE2375E03E4AFB888E
:104A08001B0A9BB2DB4353616423FB7303E000BFC3
:104A1800FB7B013BFB73FB7B002BF8D1374B1B69FE
:104A2800BB81BB891B0ABB81BB8903F01F03BB8108
:104A3800FB8847F6FE72934225D1BB89012B22D110
:104A48002B4B1B88802B1ED02D4B1B6803F070430B
:104A5800002B0CD0274B41F27172DA62254A254BA4
:104A68001B889BB243F001039BB213800BE0214BE0
:104A780041F27272DA621F4A1E4B1B889BB243F0E6
:104A880001039BB21380BB89DB43BB81184B1B8896
:104A980003F08F03002B06D01A4B1B789AB2BB8900
:104AA8001340BB8106E000F031FA03469AB2BB8995
:104AB8001340BB81144BDB8940F2645293420FD1FF
:104AC8000F4B1A68114B1B689A4207D0084B1B887A
:104AD80023F080039AB2064B1A8001E000F008F92F
:104AE800BB89DBB200E0FF2318461037BD4680BD06
:104AF80072AE002000400140000402400000024065
:104B08008804002054DE0008700400206808002093
:104B1800C0B2FE2800D070472DE97841CB0003F0E1
:104B280038024B4801F007031343CC0603700BD53A
:104B3800484B4FF480521A8300BF00BF464B474C86
:104B48001B682360BDE87881480703D5444B1B6880
:104B5800002B40D13F4B4FF480525A8300BF00BF17
:104B68000D2922D13F4A13881906E7D53A4E3B4C06
:104B7800336821683C4DA3F67800884234D02988F0
:104B8800B1F57C6F52D040F24C60814204BF0221E3
:104B98001180DFF8F4E0354E354900220720AEF8E1
:104BA80000202A8032700870CBE70E29C6D12D4B21
:104BB8001B889B07C2D0284D284C2B682268A3F27B
:104BC800AE6191422A4927D00A78013AD2B2072A1F
:104BD80019D80A70B5E7244B1B88002BBAD01D4B97
:104BE8004FF480521A83B9E72A884AB921492248E2
:104BF8004988DFF8888000680131A8F80010D8B12A
:104C080001322A809DE707230B7000F01DF9174A2F
:104C18002B680021117094E7144E0A7896F800E08A
:104C28000120904040EA0E003070CEE7134813266A
:104C3800012106801180ACE7114B01221A80FEF792
:104C480075FA1049B8F8000033682A880880D7E751
:104C58005C04002000040240940400206CAC002096
:104C68008804002072AE0020A4070020A8070020B6
:104C7800BC0700207004002068080020A607002058
:104C88008C04002070AC0020980400200D4A0023FA
:104C980013600D4A13800D4A13800D4A01211170CB
:104CA8000C4A072111700C4A13800C4A13800C4AD5
:104CB800802111800B4A13600B4A13600B4A136062
:104CC800704700BFEC050020A40700208C040020DA
:104CD800A8070020BC0700206408002098040020D2
:104CE80072AE0020400500206808002088040020DB
:104CF80080B500AFFFF7CAFFFDF73AFA0346002B6D
:104D08003CD01F4B1B68DA001E4B1B6813441C4A1F
:104D180013601B4B1B681C491846FFF7EDF8184B2E
:104D28001B680133164A13604FF40762174B1A8049
:104D3800174B00221A80174B1B8802339AB2154B67
:104D48001A80154B02221A600F4B1A88134B1A80CF
:104D5800134B40221A80134B01221A700D4B1B88EB
:104D68001A46094B9B5C072B04D940F24C620E4B48
:104D78001A8003E04FF47C620B4B1A8000BF80BDA1
:104D880040050020B807002070AC00208C040020EB
:104D9800A60700206408002088040020980400204A
:104DA80072AE0020A8070020A4070020F8B5114D16
:104DB800114E28683368C31A5A0713D10F4A104F87
:104DC80010685C1E00EB94203946FFF795F86308DD
:104DD80003F4FE730B4ADB59934209D0306800EBA9
:104DE800C30028600649FFF787F82B6801332B605A
:104DF800F8BD00BF40050020B8070020B407002018
:104E080070AC0020F8FFFF0F38B50B4C0B4A238815
:104E18000B491278CA5401339BB2B3F5007F238043
:104E280008D1084D2868FEF751FF2846FDF7E6FB34
:104E38000023238038BD00BF64080020A807002095
:104E480070AC002040050020F8B5294CFFF7DCFFC6
:104E58002388284A012B1DD013882748013301884D
:104E68009BB29942138000D0F8BD244A244D1368A0
:104E78000026194411600680224A41F2717380208D
:104E8800002120802980D36213889BB243F001035C
:104E98001380F8BD13880C2B24D00D2B1AD0164E76
:104EA800013331889BB299421380DDD11348144DE8
:104EB80002682B88144F023202339BB211443380AC
:104EC8003B700160FFF7A0FF33881B0A3B70FFF7B8
:104ED8009BFFD1E70A480C4D01882D7841EA05214E
:104EE8000180DCE70848064900780880D7E700BF5A
:104EF80072AE002098040020A60700206808002051
:104F0800A407002000400140A80700202DE9F8432D
:104F1800AB4C238813F020081AD0AA4BAA4AAB48F6
:104F2800196813680088CB1A83427FD3A848A94E12
:104F38000388116001339BB203F00102A64D038080
:104F4800B05C2870002A78D010232380BDE8F8834D
:104F5800DA064AD5A14FA248A24D3A8801682D68C1
:104F680023F01003561C9BB21FFA86F9A94223802E
:104F7800A7F8009000F0A180B9F5007F00F0058146
:104F88000231B9F5FF7F0160974D984E00F3C98053
:104F980035F809103180002900F09E80033292B262
:104FA800C2F50070DFF850823A8080B2A8F800009D
:104FB800002800F0CA80814240F2A780091A318097
:104FC800AA5C072A824A8CBF40F24C614FF47C618C
:104FD8001180814A7D49BF2043F0C0034FF4076523
:104FE800107023800D80BDE8F883764A76491068F2
:104FF800764D0A682E885F06A0EB02021FD5B242E2
:1050080014D3734E08603288724F734902F001005E
:10501800012A385C08707DD0002A7ED123F0400335
:1050280040F2DA2223802A80BDE8F8836A4B187898
:10503800BDE8F88343F020032380BDE8F883B2423B
:10504800F4D3634E08603288DFF888E1624F01329A
:1050580092B202F0010132801EF801003870002976
:10506800EBD0DFF878E1604A614EBEF80070DFF8F7
:105078008CC1D15D3278114101F00101013AD2B2FF
:105088003CF811103270072A2980D6D9DFF868C198
:10509800534DBCF800202968013A92B20131ACF8AE
:1050A80000204FF0070C296086F800C0002AC1D004
:1050B8000137AEF80070BDE8F8834E4A43F080032C
:1050C80041F272712380D16213889BB243F00103CD
:1050D8001380BF20BDE8F883DFF818E141F2727051
:1050E800CEF82C00BEF8000080B240F00100AEF807
:1050F800000000BF033292B2C2F50070DFF8F880FA
:105108003A8080B2A8F80000F8B10020A8F8001092
:10511800308055E740F2B2232B80013A3280BDE857
:10512800F88395F8FF313380FFF740FE2B783188FC
:1051380041EA03210122B1F5007F3A8012D22E4BB9
:10514800A6F80080198023883AE7FFF72FFE3388F6
:105158000022B3F5007F3A800ED8A8F800303280DC
:1051680023882DE7244823886FF4FF7C614440F2AC
:10517800FF173180078023E7A3F500734FF4007110
:105188003380A8F8001023881AE7FFF70FFE1749A5
:105198000B88002B34D1144D174E28880222B0F505
:1051A800FF7F3A8003D80B803080238808E7A0F57A
:1051B800FF704FF4FF7723880880378000E700BF2F
:1051C80072AE002094040020EC0500208C0400201E
:1051D800A407002054DE0008A80700206408002067
:1051E800880400206808002070AC0020A607002072
:1051F800BC070020004001409804002048DE000859
:10520800B3F5007FA7F800800E4A14D8A1F80080F3
:1052180013800D4B0D4E1B780D4D0E480E490F4A4D
:10522800DB09062436F813302B80047001230B8029
:105238001078BDE8F883A3F500730B80A2F80090FE
:10524800E7E700BF9804002070AC002048DE0008A3
:105258008C040020BC070020A4070020A807002019
:1052680080B400AF094BDB6ADBB203F00703DAB2A4
:10527800074B1A70054B41F27072DA62034B002239
:105288001A8200BFBD465DF8047B704700400140AC
:105298005D04002080B485B000AF78600023FB6017
:1052A80002E0FB680133FB607B6840F6C41202FB36
:1052B80003F2FB689A42F4D800BF1437BD465DF884
:1052C800047B70472DE970410028664EB8BF404204
:1052D80086FB00234FEAE074C4EBA30404EB8403C9
:1052E80085B0A0EB430040F03000B4BF4FF0010C94
:1052F8004FF0000C8DF8000000254FF0200E09E05B
:10530800023504AB2B4408F8102C82074CBF03F875
:1053180010EC054686FB0432E317C3EBA20303EB4C
:105328008302A4EB4202681C0DF11008002C42F025
:10533800300280441C46E3DCBCF1000F40F08C8056
:1053480004AA0244831E12F8112C0A705D1C7DD039
:1053580004AA1A44C31E12F8102C4A705C1C75D09B
:1053680004AA1A44031F12F8102C8A705A1C6DD014
:1053780004AA1A44431F12F8102CCA705E1C65D088
:1053880004AA1A44831F12F8102C0A715D1C5DD000
:1053980004AA1A44C31F12F8102C4A715C1C55D079
:1053A80004AA1A44A0F1080312F8102C8A715A1C96
:1053B8004CD004AA1A44A0F1090312F8102CCA719F
:1053C8005E1C43D004AA1A44A0F10A0312F8102C58
:1053D8000A725D1C3AD004AA1A44A0F10B0312F811
:1053E800102C4A725C1C31D004AA1A44A0F10C0398
:1053F80012F8102C8A725A1C28D004AA1A44A0F158
:105408000D0312F8102CCA725E1C1FD004AA1A448D
:10541800A0F10E0312F8102C0A735D1C16D004AA12
:105428001A44A0F10F0312F8102C4A735C1C0DD01B
:1054380004AA1A44A0F1100312F8102C8A735A1CFB
:1054480004D004AA134413F8103CCB7300230B5464
:10545800C0B205B0BDE870812D22A81C08F8102C38
:105468006EE700BF6766666680B584B000AF01214D
:105478000120FBF70BF901210220FBF707F90123B3
:105488003B7303237B730023BB730023FB73FF234E
:10549800BB6007F1080319462948FBF71FF80223E8
:1054A800FB734FF48053BB6007F108031946244887
:1054B800FBF714F800233B7303237B730023BB73B0
:1054C8000223FB734FF4F853BB6007F10803194636
:1054D8001C48FBF703F801214FF48030FBF716F95D
:1054E80018233B7106237B710123BB710123FB71D8
:1054F8003B1D1846FAF764FE134B4CF250321A85DE
:10550800114B41F27072DA620F4A0F4B9B899BB2C2
:1055180043F001039BB293810B4A0B4B1B889BB250
:1055280043F008039BB21380074A074B1B889BB2C2
:1055380043F001039BB2138000BF1037BD4680BD06
:1055480000040240000002400040014080B598B0CD
:1055580000AF01210120FBF799F801214FF4805099
:10556800FBF7D4F803237B720023BB7202233B7240
:105578000123FB7280237B603B1D19461D48FAF707
:10558800ADFF052207211B48FBF736F800211A4812
:10559800FBF720F94FF44043A7F848304FF48273E3
:1055A800A7F84A300023A7F84C300023A7F84E305C
:1055B8000123A7F850304FF40073A7F8523008239E
:1055C800A7F854300023A7F856300723A7F8583017
:1055D80007F1480319460848FBF7B8F800210648C0
:1055E800FBF718F901210448FBF7F4F800BF60370E
:1055F800BD4680BD000002400030014080B594B037
:1056080000AF01210120FBF781F801214FF4800050
:10561800FBF73CF88C4A8C4B1B889BB223F0700339
:105628009BB21380884B884A128892B21A80864AA5
:10563800854B1B889BB223F440739BB21380824B2B
:105648003F22DA62804B00221A857F4B1F221A867E
:105658007D4B01229A827C4A7B4B1B889BB243F08C
:1056680008039BB21380784B2B225A63764A764BF9
:105678001B8B9BB223F070039BB21383724A724B4D
:105688001B8B9BB223F003039BB213836E4A6E4BB2
:105698001B8B9BB243F060039BB213836A4A6A4B2D
:1056A8001B8C9BB223F002039BB21384664B664AA1
:1056B800128C92B21A84644B01221A84624A624B99
:1056C8009B899BB243F400739BB293815F48FAF7BE
:1056D800D9FD4FF04063BB6040237B610023FB6131
:1056E8004FF480633B6200237B620023BB624FF46C
:1056F8008073FB624FF440333B630023FB6300235A
:105708003B6400237B630023BB632023BB61504BB6
:10571800FB60504B3B6107F1080319464B48FAF709
:1057280085FE4A4B4B4ADA60484B4A4A1A61474A57
:10573800464B1B6843F480231360444A434B1B6861
:1057480043F001031360404B1C229A633E4A3E4BD0
:105758009B8B9BB223F4E0439BB293833A4A3A4B28
:105768009B8B9BB223F440739BB29383364A364B90
:105778009B8B9BB243F060039BB29383324A324BBC
:105788001B8C9BB223F020039BB213842E4B2E4A12
:10579800128C92B21A842C4B10221A842A4A2A4B51
:1057A8009B899BB243F480639BB293812A48FAF7A2
:1057B80069FD4FF04063BB6040237B610023FB61C0
:1057C8004FF480633B6200237B620023BB624FF48B
:1057D8008073FB624FF440333B630023FB63002379
:1057E8003B6400237B630023BB632023BB611B4B0B
:1057F800FB601B4B3B6107F1080319461648FAF793
:1058080015FE154B164ADA60134B154A1A61124AEF
:10581800114B1B6843F4802313600F4A0E4B1B681F
:1058280043F00103136039233B7100237B7100238C
:10583800BB710123FB713B1D1846FAF7C1FC00BF81
:105848005037BD4680BD00BF0000014028640240BB
:105858001400024084C90020406402400C3001401A
:1058680084B1002080B59AB000AF01214FF4001038
:10587800FAF70CFF01214FF48000FAF707FF012126
:105888000120FAF703FF01210220FAF7FFFE0121A8
:105898000420FAF7FBFE012387F86430032387F816
:1058A8006530002387F86630012387F867304FF4A6
:1058B80000533B6607F160031946CE48FAF70EFE1F
:1058C80001210120FAF702FF032387F8653000233E
:1058D80087F86630022387F86430012387F8673039
:1058E8004FF480633B6607F160031946C248FAF734
:1058F800F5FD01220A21C048FAF77EFE0123A7F828
:1059080054300023A7F8563040F21F33BB650023FC
:10591800A7F85C30002387F85E3007F15403194676
:105928004FF08040FAF796FF7023A7F84030012324
:10593800A7F842300023A7F844306023BB64002353
:10594800A7F84C300023A7F84E304FF48073A7F81F
:1059580050300023A7F8523007F1400319464FF0A2
:105968008040FBF705F90023A7F840307823BB6493
:1059780007F1400319464FF08040FBF77FF94FF0DD
:1059880080424FF080439B899BB243F010039BB247
:1059980093810023A7F84030BC23BB6407F1400380
:1059A80019464FF08040FAF7E1FF4FF080424FF080
:1059B80080439B899BB243F002039BB293810023EF
:1059C800A7F8403040F2C923BB6407F140031946E9
:1059D8004FF08040FBF744F84FF080424FF080438F
:1059E8009B899BB243F004039BB293811C233B70B9
:1059F80000237B700023BB700123FB703B461846D5
:105A0800FAF7DEFB80214FF08040FBF719FA2021DE
:105A18004FF08040FBF7DCF901210420FAF756FE2D
:105A280005217648FBF7F0F910217448FBF7B4F923
:105A3800032387F86530002387F86630022387F848
:105A48006430012387F867304FF480733B6607F1B1
:105A5800600319466848FAF741FD022208216648A2
:105A6800FAF7CAFD0023A7F854300023A7F85630E8
:105A78004FF40373BB650023A7F85C30002387F855
:105A88005E3007F1540319465C48FAF7E3FE1E231B
:105A98003B7000237B700023BB700123FB703B46E7
:105AA8001846FAF78DFB554A544B9B899BB243F035
:105AB80040039BB293817023A7F840300123A7F8D5
:105AC80042300423A7F844300223BB640023A7F81C
